{
  "_format": "hh-sol-artifact-1",
  "contractName": "Aliens",
  "sourceName": "contracts/Aliens.sol",
  "abi": [
    {
      "inputs": [],
      "stateMutability": "nonpayable",
      "type": "constructor"
    },
    {
      "anonymous": false,
      "inputs": [
        {
          "indexed": true,
          "internalType": "address",
          "name": "owner",
          "type": "address"
        },
        {
          "indexed": true,
          "internalType": "address",
          "name": "approved",
          "type": "address"
        },
        {
          "indexed": true,
          "internalType": "uint256",
          "name": "tokenId",
          "type": "uint256"
        }
      ],
      "name": "Approval",
      "type": "event"
    },
    {
      "anonymous": false,
      "inputs": [
        {
          "indexed": true,
          "internalType": "address",
          "name": "owner",
          "type": "address"
        },
        {
          "indexed": true,
          "internalType": "address",
          "name": "operator",
          "type": "address"
        },
        {
          "indexed": false,
          "internalType": "bool",
          "name": "approved",
          "type": "bool"
        }
      ],
      "name": "ApprovalForAll",
      "type": "event"
    },
    {
      "anonymous": false,
      "inputs": [
        {
          "indexed": true,
          "internalType": "address",
          "name": "previousOwner",
          "type": "address"
        },
        {
          "indexed": true,
          "internalType": "address",
          "name": "newOwner",
          "type": "address"
        }
      ],
      "name": "OwnershipTransferred",
      "type": "event"
    },
    {
      "anonymous": false,
      "inputs": [
        {
          "indexed": true,
          "internalType": "address",
          "name": "from",
          "type": "address"
        },
        {
          "indexed": true,
          "internalType": "address",
          "name": "to",
          "type": "address"
        },
        {
          "indexed": true,
          "internalType": "uint256",
          "name": "tokenId",
          "type": "uint256"
        }
      ],
      "name": "Transfer",
      "type": "event"
    },
    {
      "inputs": [
        {
          "internalType": "uint256",
          "name": "",
          "type": "uint256"
        }
      ],
      "name": "alienRaces",
      "outputs": [
        {
          "internalType": "uint256",
          "name": "strength",
          "type": "uint256"
        },
        {
          "internalType": "uint256",
          "name": "createdAtBlock",
          "type": "uint256"
        }
      ],
      "stateMutability": "view",
      "type": "function"
    },
    {
      "inputs": [
        {
          "internalType": "address",
          "name": "to",
          "type": "address"
        },
        {
          "internalType": "uint256",
          "name": "tokenId",
          "type": "uint256"
        }
      ],
      "name": "approve",
      "outputs": [],
      "stateMutability": "nonpayable",
      "type": "function"
    },
    {
      "inputs": [
        {
          "internalType": "address",
          "name": "owner",
          "type": "address"
        }
      ],
      "name": "balanceOf",
      "outputs": [
        {
          "internalType": "uint256",
          "name": "",
          "type": "uint256"
        }
      ],
      "stateMutability": "view",
      "type": "function"
    },
    {
      "inputs": [],
      "name": "baseTokenURI",
      "outputs": [
        {
          "internalType": "string",
          "name": "",
          "type": "string"
        }
      ],
      "stateMutability": "view",
      "type": "function"
    },
    {
      "inputs": [
        {
          "internalType": "uint256",
          "name": "tokenId",
          "type": "uint256"
        }
      ],
      "name": "burn",
      "outputs": [],
      "stateMutability": "nonpayable",
      "type": "function"
    },
    {
      "inputs": [
        {
          "internalType": "uint256",
          "name": "tokenId",
          "type": "uint256"
        }
      ],
      "name": "getAlienStrength",
      "outputs": [
        {
          "internalType": "uint256",
          "name": "",
          "type": "uint256"
        }
      ],
      "stateMutability": "view",
      "type": "function"
    },
    {
      "inputs": [
        {
          "internalType": "uint256",
          "name": "tokenId",
          "type": "uint256"
        }
      ],
      "name": "getApproved",
      "outputs": [
        {
          "internalType": "address",
          "name": "",
          "type": "address"
        }
      ],
      "stateMutability": "view",
      "type": "function"
    },
    {
      "inputs": [],
      "name": "getMintCost",
      "outputs": [
        {
          "internalType": "uint256",
          "name": "",
          "type": "uint256"
        }
      ],
      "stateMutability": "view",
      "type": "function"
    },
    {
      "inputs": [
        {
          "internalType": "address",
          "name": "owner",
          "type": "address"
        },
        {
          "internalType": "address",
          "name": "operator",
          "type": "address"
        }
      ],
      "name": "isApprovedForAll",
      "outputs": [
        {
          "internalType": "bool",
          "name": "",
          "type": "bool"
        }
      ],
      "stateMutability": "view",
      "type": "function"
    },
    {
      "inputs": [
        {
          "internalType": "address payable",
          "name": "recipient",
          "type": "address"
        }
      ],
      "name": "mint",
      "outputs": [],
      "stateMutability": "payable",
      "type": "function"
    },
    {
      "inputs": [],
      "name": "name",
      "outputs": [
        {
          "internalType": "string",
          "name": "",
          "type": "string"
        }
      ],
      "stateMutability": "view",
      "type": "function"
    },
    {
      "inputs": [],
      "name": "owner",
      "outputs": [
        {
          "internalType": "address",
          "name": "",
          "type": "address"
        }
      ],
      "stateMutability": "view",
      "type": "function"
    },
    {
      "inputs": [
        {
          "internalType": "uint256",
          "name": "tokenId",
          "type": "uint256"
        }
      ],
      "name": "ownerOf",
      "outputs": [
        {
          "internalType": "address",
          "name": "",
          "type": "address"
        }
      ],
      "stateMutability": "view",
      "type": "function"
    },
    {
      "inputs": [],
      "name": "renounceOwnership",
      "outputs": [],
      "stateMutability": "nonpayable",
      "type": "function"
    },
    {
      "inputs": [
        {
          "internalType": "address",
          "name": "from",
          "type": "address"
        },
        {
          "internalType": "address",
          "name": "to",
          "type": "address"
        },
        {
          "internalType": "uint256",
          "name": "tokenId",
          "type": "uint256"
        }
      ],
      "name": "safeTransferFrom",
      "outputs": [],
      "stateMutability": "nonpayable",
      "type": "function"
    },
    {
      "inputs": [
        {
          "internalType": "address",
          "name": "from",
          "type": "address"
        },
        {
          "internalType": "address",
          "name": "to",
          "type": "address"
        },
        {
          "internalType": "uint256",
          "name": "tokenId",
          "type": "uint256"
        },
        {
          "internalType": "bytes",
          "name": "data",
          "type": "bytes"
        }
      ],
      "name": "safeTransferFrom",
      "outputs": [],
      "stateMutability": "nonpayable",
      "type": "function"
    },
    {
      "inputs": [
        {
          "internalType": "uint256",
          "name": "tokenId",
          "type": "uint256"
        }
      ],
      "name": "setAlienStrength",
      "outputs": [],
      "stateMutability": "nonpayable",
      "type": "function"
    },
    {
      "inputs": [
        {
          "internalType": "address",
          "name": "operator",
          "type": "address"
        },
        {
          "internalType": "bool",
          "name": "approved",
          "type": "bool"
        }
      ],
      "name": "setApprovalForAll",
      "outputs": [],
      "stateMutability": "nonpayable",
      "type": "function"
    },
    {
      "inputs": [
        {
          "internalType": "string",
          "name": "_baseUri",
          "type": "string"
        }
      ],
      "name": "setBaseUri",
      "outputs": [],
      "stateMutability": "nonpayable",
      "type": "function"
    },
    {
      "inputs": [
        {
          "internalType": "uint256",
          "name": "newGasBack",
          "type": "uint256"
        }
      ],
      "name": "setGasBack",
      "outputs": [],
      "stateMutability": "nonpayable",
      "type": "function"
    },
    {
      "inputs": [
        {
          "internalType": "uint256",
          "name": "newCost",
          "type": "uint256"
        }
      ],
      "name": "setMintCost",
      "outputs": [],
      "stateMutability": "nonpayable",
      "type": "function"
    },
    {
      "inputs": [
        {
          "internalType": "bytes4",
          "name": "interfaceId",
          "type": "bytes4"
        }
      ],
      "name": "supportsInterface",
      "outputs": [
        {
          "internalType": "bool",
          "name": "",
          "type": "bool"
        }
      ],
      "stateMutability": "view",
      "type": "function"
    },
    {
      "inputs": [],
      "name": "symbol",
      "outputs": [
        {
          "internalType": "string",
          "name": "",
          "type": "string"
        }
      ],
      "stateMutability": "view",
      "type": "function"
    },
    {
      "inputs": [
        {
          "internalType": "uint256",
          "name": "tokenId",
          "type": "uint256"
        }
      ],
      "name": "tokenURI",
      "outputs": [
        {
          "internalType": "string",
          "name": "",
          "type": "string"
        }
      ],
      "stateMutability": "view",
      "type": "function"
    },
    {
      "inputs": [
        {
          "internalType": "address",
          "name": "from",
          "type": "address"
        },
        {
          "internalType": "address",
          "name": "to",
          "type": "address"
        },
        {
          "internalType": "uint256",
          "name": "tokenId",
          "type": "uint256"
        }
      ],
      "name": "transferFrom",
      "outputs": [],
      "stateMutability": "nonpayable",
      "type": "function"
    },
    {
      "inputs": [
        {
          "internalType": "address",
          "name": "newOwner",
          "type": "address"
        }
      ],
      "name": "transferOwnership",
      "outputs": [],
      "stateMutability": "nonpayable",
      "type": "function"
    },
    {
      "stateMutability": "payable",
      "type": "receive"
    }
  ],
  "bytecode": "0x6080604052678ac7230489e80000600855662386f26fc10000600955600a805560405180602001604052806000815250600b90805190602001906200004692919062000862565b503480156200005457600080fd5b506040518060400160405280600681526020017f416c69656e7300000000000000000000000000000000000000000000000000008152506040518060400160405280600381526020017f414c4e00000000000000000000000000000000000000000000000000000000008152508160009080519060200190620000d992919062000862565b508060019080519060200190620000f292919062000862565b50505062000115620001096200022660201b60201c565b6200022e60201b60201c565b60006040518060800160405280600160ff168152602001600260ff168152602001600260ff168152602001600260ff16815250905060005b60048110156200021e576200017f33620001736007620002f460201b620012121760201c565b6200030260201b60201c565b6040518060400160405280838360048110620001a0576200019f62000912565b5b602002015160ff16815260200143815250600c6000620001cc6007620002f460201b620012121760201c565b815260200190815260200160002060008201518160000155602082015181600101559050506200020860076200032860201b620012201760201c565b808062000215906200097a565b9150506200014d565b505062000d9c565b600033905090565b6000600660009054906101000a900473ffffffffffffffffffffffffffffffffffffffff16905081600660006101000a81548173ffffffffffffffffffffffffffffffffffffffff021916908373ffffffffffffffffffffffffffffffffffffffff1602179055508173ffffffffffffffffffffffffffffffffffffffff168173ffffffffffffffffffffffffffffffffffffffff167f8be0079c531659141344cd1fd0a4f28419497f9722a3daafe3b4186f6b6457e060405160405180910390a35050565b600081600001549050919050565b620003248282604051806020016040528060008152506200033e60201b60201c565b5050565b6001816000016000828254019250508190555050565b620003508383620003ac60201b60201c565b620003656000848484620005f360201b60201c565b620003a7576040517f08c379a00000000000000000000000000000000000000000000000000000000081526004016200039e9062000a4f565b60405180910390fd5b505050565b600073ffffffffffffffffffffffffffffffffffffffff168273ffffffffffffffffffffffffffffffffffffffff1614156200041f576040517f08c379a0000000000000000000000000000000000000000000000000000000008152600401620004169062000ac1565b60405180910390fd5b6200043081620007ad60201b60201c565b1562000473576040517f08c379a00000000000000000000000000000000000000000000000000000000081526004016200046a9062000b33565b60405180910390fd5b62000489600083836001620007f660201b60201c565b6200049a81620007ad60201b60201c565b15620004dd576040517f08c379a0000000000000000000000000000000000000000000000000000000008152600401620004d49062000b33565b60405180910390fd5b6001600360008473ffffffffffffffffffffffffffffffffffffffff1673ffffffffffffffffffffffffffffffffffffffff16815260200190815260200160002060008282540192505081905550816002600083815260200190815260200160002060006101000a81548173ffffffffffffffffffffffffffffffffffffffff021916908373ffffffffffffffffffffffffffffffffffffffff160217905550808273ffffffffffffffffffffffffffffffffffffffff16600073ffffffffffffffffffffffffffffffffffffffff167fddf252ad1be2c89b69c2b068fc378daa952ba7f163c4a11628f55a4df523b3ef60405160405180910390a4620005ef600083836001620007fc60201b60201c565b5050565b6000620006218473ffffffffffffffffffffffffffffffffffffffff166200080260201b620012361760201c565b15620007a0578373ffffffffffffffffffffffffffffffffffffffff1663150b7a02620006536200022660201b60201c565b8786866040518563ffffffff1660e01b815260040162000677949392919062000c4f565b602060405180830381600087803b1580156200069257600080fd5b505af1925050508015620006c657506040513d601f19601f82011682018060405250810190620006c3919062000d05565b60015b6200074f573d8060008114620006f9576040519150601f19603f3d011682016040523d82523d6000602084013e620006fe565b606091505b5060008151141562000747576040517f08c379a00000000000000000000000000000000000000000000000000000000081526004016200073e9062000a4f565b60405180910390fd5b805181602001fd5b63150b7a0260e01b7bffffffffffffffffffffffffffffffffffffffffffffffffffffffff1916817bffffffffffffffffffffffffffffffffffffffffffffffffffffffff191614915050620007a5565b600190505b949350505050565b60008073ffffffffffffffffffffffffffffffffffffffff16620007d7836200082560201b60201c565b73ffffffffffffffffffffffffffffffffffffffff1614159050919050565b50505050565b50505050565b6000808273ffffffffffffffffffffffffffffffffffffffff163b119050919050565b60006002600083815260200190815260200160002060009054906101000a900473ffffffffffffffffffffffffffffffffffffffff169050919050565b828054620008709062000d66565b90600052602060002090601f016020900481019282620008945760008555620008e0565b82601f10620008af57805160ff1916838001178555620008e0565b82800160010185558215620008e0579182015b82811115620008df578251825591602001919060010190620008c2565b5b509050620008ef9190620008f3565b5090565b5b808211156200090e576000816000905550600101620008f4565b5090565b7f4e487b7100000000000000000000000000000000000000000000000000000000600052603260045260246000fd5b7f4e487b7100000000000000000000000000000000000000000000000000000000600052601160045260246000fd5b6000819050919050565b6000620009878262000970565b91507fffffffffffffffffffffffffffffffffffffffffffffffffffffffffffffffff821415620009bd57620009bc62000941565b5b600182019050919050565b600082825260208201905092915050565b7f4552433732313a207472616e7366657220746f206e6f6e20455243373231526560008201527f63656976657220696d706c656d656e7465720000000000000000000000000000602082015250565b600062000a37603283620009c8565b915062000a4482620009d9565b604082019050919050565b6000602082019050818103600083015262000a6a8162000a28565b9050919050565b7f4552433732313a206d696e7420746f20746865207a65726f2061646472657373600082015250565b600062000aa9602083620009c8565b915062000ab68262000a71565b602082019050919050565b6000602082019050818103600083015262000adc8162000a9a565b9050919050565b7f4552433732313a20746f6b656e20616c7265616479206d696e74656400000000600082015250565b600062000b1b601c83620009c8565b915062000b288262000ae3565b602082019050919050565b6000602082019050818103600083015262000b4e8162000b0c565b9050919050565b600073ffffffffffffffffffffffffffffffffffffffff82169050919050565b600062000b828262000b55565b9050919050565b62000b948162000b75565b82525050565b62000ba58162000970565b82525050565b600081519050919050565b600082825260208201905092915050565b60005b8381101562000be757808201518184015260208101905062000bca565b8381111562000bf7576000848401525b50505050565b6000601f19601f8301169050919050565b600062000c1b8262000bab565b62000c27818562000bb6565b935062000c3981856020860162000bc7565b62000c448162000bfd565b840191505092915050565b600060808201905062000c66600083018762000b89565b62000c75602083018662000b89565b62000c84604083018562000b9a565b818103606083015262000c98818462000c0e565b905095945050505050565b600080fd5b60007fffffffff0000000000000000000000000000000000000000000000000000000082169050919050565b62000cdf8162000ca8565b811462000ceb57600080fd5b50565b60008151905062000cff8162000cd4565b92915050565b60006020828403121562000d1e5762000d1d62000ca3565b5b600062000d2e8482850162000cee565b91505092915050565b7f4e487b7100000000000000000000000000000000000000000000000000000000600052602260045260246000fd5b6000600282049050600182168062000d7f57607f821691505b6020821081141562000d965762000d9562000d37565b5b50919050565b6135f88062000dac6000396000f3fe6080604052600436106101855760003560e01c806370a08231116100d1578063a22cb4651161008a578063d547cfb711610064578063d547cfb71461062d578063e07d9ab614610658578063e985e9c514610695578063f2fde38b146106d257610240565b8063a22cb4651461059e578063b88d4fde146105c7578063c87b56dd146105f057610240565b806370a08231146104a2578063715018a6146104df5780638545f4ea146104f65780638da5cb5b1461051f57806395d89b411461054a578063a0bcfc7f1461057557610240565b80632ea840541161013e57806342966c681161011857806342966c68146103f75780635b0754ed146104205780636352211e146104495780636a6278421461048657610240565b80632ea8405414610367578063407e1313146103a557806342842e0e146103ce57610240565b806301ffc9a71461024557806306fdde0314610282578063081812fc146102ad578063095ea7b3146102ea57806313c738f01461031357806323b872dd1461033e57610240565b366102405760006101946106fb565b73ffffffffffffffffffffffffffffffffffffffff16346040516101b790612387565b60006040518083038185875af1925050503d80600081146101f4576040519150601f19603f3d011682016040523d82523d6000602084013e6101f9565b606091505b505090508061023d576040517f08c379a0000000000000000000000000000000000000000000000000000000008152600401610234906123f9565b60405180910390fd5b50005b600080fd5b34801561025157600080fd5b5061026c60048036038101906102679190612485565b610725565b60405161027991906124cd565b60405180910390f35b34801561028e57600080fd5b50610297610807565b6040516102a49190612570565b60405180910390f35b3480156102b957600080fd5b506102d460048036038101906102cf91906125c8565b610899565b6040516102e19190612636565b60405180910390f35b3480156102f657600080fd5b50610311600480360381019061030c919061267d565b6108df565b005b34801561031f57600080fd5b506103286109f7565b60405161033591906126cc565b60405180910390f35b34801561034a57600080fd5b50610365600480360381019061036091906126e7565b610a01565b005b34801561037357600080fd5b5061038e600480360381019061038991906125c8565b610a61565b60405161039c92919061273a565b60405180910390f35b3480156103b157600080fd5b506103cc60048036038101906103c791906125c8565b610a85565b005b3480156103da57600080fd5b506103f560048036038101906103f091906126e7565b610b41565b005b34801561040357600080fd5b5061041e600480360381019061041991906125c8565b610b61565b005b34801561042c57600080fd5b50610447600480360381019061044291906125c8565b610bbd565b005b34801561045557600080fd5b50610470600480360381019061046b91906125c8565b610bcf565b60405161047d9190612636565b60405180910390f35b6104a0600480360381019061049b91906127a1565b610c56565b005b3480156104ae57600080fd5b506104c960048036038101906104c491906127ce565b610dd6565b6040516104d691906126cc565b60405180910390f35b3480156104eb57600080fd5b506104f4610e8e565b005b34801561050257600080fd5b5061051d600480360381019061051891906125c8565b610ea2565b005b34801561052b57600080fd5b506105346106fb565b6040516105419190612636565b60405180910390f35b34801561055657600080fd5b5061055f610eb4565b60405161056c9190612570565b60405180910390f35b34801561058157600080fd5b5061059c60048036038101906105979190612930565b610f46565b005b3480156105aa57600080fd5b506105c560048036038101906105c091906129a5565b610f68565b005b3480156105d357600080fd5b506105ee60048036038101906105e99190612a86565b610f7e565b005b3480156105fc57600080fd5b50610617600480360381019061061291906125c8565b610fe0565b6040516106249190612570565b60405180910390f35b34801561063957600080fd5b50610642611048565b60405161064f9190612570565b60405180910390f35b34801561066457600080fd5b5061067f600480360381019061067a91906125c8565b6110da565b60405161068c91906126cc565b60405180910390f35b3480156106a157600080fd5b506106bc60048036038101906106b79190612b09565b6110fa565b6040516106c991906124cd565b60405180910390f35b3480156106de57600080fd5b506106f960048036038101906106f491906127ce565b61118e565b005b6000600660009054906101000a900473ffffffffffffffffffffffffffffffffffffffff16905090565b60007f80ac58cd000000000000000000000000000000000000000000000000000000007bffffffffffffffffffffffffffffffffffffffffffffffffffffffff1916827bffffffffffffffffffffffffffffffffffffffffffffffffffffffff191614806107f057507f5b5e139f000000000000000000000000000000000000000000000000000000007bffffffffffffffffffffffffffffffffffffffffffffffffffffffff1916827bffffffffffffffffffffffffffffffffffffffffffffffffffffffff1916145b8061080057506107ff82611259565b5b9050919050565b60606000805461081690612b78565b80601f016020809104026020016040519081016040528092919081815260200182805461084290612b78565b801561088f5780601f106108645761010080835404028352916020019161088f565b820191906000526020600020905b81548152906001019060200180831161087257829003601f168201915b5050505050905090565b60006108a4826112c3565b6004600083815260200190815260200160002060009054906101000a900473ffffffffffffffffffffffffffffffffffffffff169050919050565b60006108ea82610bcf565b90508073ffffffffffffffffffffffffffffffffffffffff168373ffffffffffffffffffffffffffffffffffffffff16141561095b576040517f08c379a000000000000000000000000000000000000000000000000000000000815260040161095290612c1c565b60405180910390fd5b8073ffffffffffffffffffffffffffffffffffffffff1661097a61130e565b73ffffffffffffffffffffffffffffffffffffffff1614806109a957506109a8816109a361130e565b6110fa565b5b6109e8576040517f08c379a00000000000000000000000000000000000000000000000000000000081526004016109df90612cae565b60405180910390fd5b6109f28383611316565b505050565b6000600854905090565b610a12610a0c61130e565b826113cf565b610a51576040517f08c379a0000000000000000000000000000000000000000000000000000000008152600401610a4890612d40565b60405180910390fd5b610a5c838383611464565b505050565b600c6020528060005260406000206000915090508060000154908060010154905082565b6000600c60008381526020019081526020016000206000015414610ade576040517f08c379a0000000000000000000000000000000000000000000000000000000008152600401610ad590612dac565b60405180910390fd5b60006001600c600084815260200190815260200160002060010154610b039190612dfb565b90506000814090506000600a548260001c610b1e9190612e80565b905080600c60008681526020019081526020016000206000018190555050505050565b610b5c83838360405180602001604052806000815250610f7e565b505050565b610b72610b6c61130e565b826113cf565b610bb1576040517f08c379a0000000000000000000000000000000000000000000000000000000008152600401610ba890612d40565b60405180910390fd5b610bba8161175e565b50565b610bc56118ac565b8060098190555050565b600080610bdb8361192a565b9050600073ffffffffffffffffffffffffffffffffffffffff168173ffffffffffffffffffffffffffffffffffffffff161415610c4d576040517f08c379a0000000000000000000000000000000000000000000000000000000008152600401610c4490612efd565b60405180910390fd5b80915050919050565b6008543414610c9a576040517f08c379a0000000000000000000000000000000000000000000000000000000008152600401610c9190612f69565b60405180910390fd5b610cad81610ca86007611212565b611967565b60405180604001604052806000815260200143815250600c6000610cd16007611212565b8152602001908152602001600020600082015181600001556020820151816001015590505043600c6000610d056007611212565b815260200190815260200160002060010181905550610d246007611220565b60008173ffffffffffffffffffffffffffffffffffffffff16600954604051610d4c90612387565b60006040518083038185875af1925050503d8060008114610d89576040519150601f19603f3d011682016040523d82523d6000602084013e610d8e565b606091505b5050905080610dd2576040517f08c379a0000000000000000000000000000000000000000000000000000000008152600401610dc990612fd5565b60405180910390fd5b5050565b60008073ffffffffffffffffffffffffffffffffffffffff168273ffffffffffffffffffffffffffffffffffffffff161415610e47576040517f08c379a0000000000000000000000000000000000000000000000000000000008152600401610e3e90613067565b60405180910390fd5b600360008373ffffffffffffffffffffffffffffffffffffffff1673ffffffffffffffffffffffffffffffffffffffff168152602001908152602001600020549050919050565b610e966118ac565b610ea06000611985565b565b610eaa6118ac565b8060088190555050565b606060018054610ec390612b78565b80601f0160208091040260200160405190810160405280929190818152602001828054610eef90612b78565b8015610f3c5780601f10610f1157610100808354040283529160200191610f3c565b820191906000526020600020905b815481529060010190602001808311610f1f57829003601f168201915b5050505050905090565b610f4e6118ac565b80600b9080519060200190610f649291906122b3565b5050565b610f7a610f7361130e565b8383611a4b565b5050565b610f8f610f8961130e565b836113cf565b610fce576040517f08c379a0000000000000000000000000000000000000000000000000000000008152600401610fc590612d40565b60405180910390fd5b610fda84848484611bb8565b50505050565b6060610feb826112c3565b6000610ff5611c14565b905060008151116110155760405180602001604052806000815250611040565b8061101f84611c2b565b6040516020016110309291906130c3565b6040516020818303038152906040525b915050919050565b6060600b805461105790612b78565b80601f016020809104026020016040519081016040528092919081815260200182805461108390612b78565b80156110d05780601f106110a5576101008083540402835291602001916110d0565b820191906000526020600020905b8154815290600101906020018083116110b357829003601f168201915b5050505050905090565b6000600c6000838152602001908152602001600020600001549050919050565b6000600560008473ffffffffffffffffffffffffffffffffffffffff1673ffffffffffffffffffffffffffffffffffffffff16815260200190815260200160002060008373ffffffffffffffffffffffffffffffffffffffff1673ffffffffffffffffffffffffffffffffffffffff16815260200190815260200160002060009054906101000a900460ff16905092915050565b6111966118ac565b600073ffffffffffffffffffffffffffffffffffffffff168173ffffffffffffffffffffffffffffffffffffffff161415611206576040517f08c379a00000000000000000000000000000000000000000000000000000000081526004016111fd90613159565b60405180910390fd5b61120f81611985565b50565b600081600001549050919050565b6001816000016000828254019250508190555050565b6000808273ffffffffffffffffffffffffffffffffffffffff163b119050919050565b60007f01ffc9a7000000000000000000000000000000000000000000000000000000007bffffffffffffffffffffffffffffffffffffffffffffffffffffffff1916827bffffffffffffffffffffffffffffffffffffffffffffffffffffffff1916149050919050565b6112cc81611d03565b61130b576040517f08c379a000000000000000000000000000000000000000000000000000000000815260040161130290612efd565b60405180910390fd5b50565b600033905090565b816004600083815260200190815260200160002060006101000a81548173ffffffffffffffffffffffffffffffffffffffff021916908373ffffffffffffffffffffffffffffffffffffffff160217905550808273ffffffffffffffffffffffffffffffffffffffff1661138983610bcf565b73ffffffffffffffffffffffffffffffffffffffff167f8c5be1e5ebec7d5bd14f71427d1e84f3dd0314c0f7b2291e5b200ac8c7c3b92560405160405180910390a45050565b6000806113db83610bcf565b90508073ffffffffffffffffffffffffffffffffffffffff168473ffffffffffffffffffffffffffffffffffffffff16148061141d575061141c81856110fa565b5b8061145b57508373ffffffffffffffffffffffffffffffffffffffff1661144384610899565b73ffffffffffffffffffffffffffffffffffffffff16145b91505092915050565b8273ffffffffffffffffffffffffffffffffffffffff1661148482610bcf565b73ffffffffffffffffffffffffffffffffffffffff16146114da576040517f08c379a00000000000000000000000000000000000000000000000000000000081526004016114d1906131eb565b60405180910390fd5b600073ffffffffffffffffffffffffffffffffffffffff168273ffffffffffffffffffffffffffffffffffffffff16141561154a576040517f08c379a00000000000000000000000000000000000000000000000000000000081526004016115419061327d565b60405180910390fd5b6115578383836001611d44565b8273ffffffffffffffffffffffffffffffffffffffff1661157782610bcf565b73ffffffffffffffffffffffffffffffffffffffff16146115cd576040517f08c379a00000000000000000000000000000000000000000000000000000000081526004016115c4906131eb565b60405180910390fd5b6004600082815260200190815260200160002060006101000a81549073ffffffffffffffffffffffffffffffffffffffff02191690556001600360008573ffffffffffffffffffffffffffffffffffffffff1673ffffffffffffffffffffffffffffffffffffffff168152602001908152602001600020600082825403925050819055506001600360008473ffffffffffffffffffffffffffffffffffffffff1673ffffffffffffffffffffffffffffffffffffffff16815260200190815260200160002060008282540192505081905550816002600083815260200190815260200160002060006101000a81548173ffffffffffffffffffffffffffffffffffffffff021916908373ffffffffffffffffffffffffffffffffffffffff160217905550808273ffffffffffffffffffffffffffffffffffffffff168473ffffffffffffffffffffffffffffffffffffffff167fddf252ad1be2c89b69c2b068fc378daa952ba7f163c4a11628f55a4df523b3ef60405160405180910390a46117598383836001611d4a565b505050565b600061176982610bcf565b9050611779816000846001611d44565b61178282610bcf565b90506004600083815260200190815260200160002060006101000a81549073ffffffffffffffffffffffffffffffffffffffff02191690556001600360008373ffffffffffffffffffffffffffffffffffffffff1673ffffffffffffffffffffffffffffffffffffffff168152602001908152602001600020600082825403925050819055506002600083815260200190815260200160002060006101000a81549073ffffffffffffffffffffffffffffffffffffffff021916905581600073ffffffffffffffffffffffffffffffffffffffff168273ffffffffffffffffffffffffffffffffffffffff167fddf252ad1be2c89b69c2b068fc378daa952ba7f163c4a11628f55a4df523b3ef60405160405180910390a46118a8816000846001611d4a565b5050565b6118b461130e565b73ffffffffffffffffffffffffffffffffffffffff166118d26106fb565b73ffffffffffffffffffffffffffffffffffffffff1614611928576040517f08c379a000000000000000000000000000000000000000000000000000000000815260040161191f906132e9565b60405180910390fd5b565b60006002600083815260200190815260200160002060009054906101000a900473ffffffffffffffffffffffffffffffffffffffff169050919050565b611981828260405180602001604052806000815250611d50565b5050565b6000600660009054906101000a900473ffffffffffffffffffffffffffffffffffffffff16905081600660006101000a81548173ffffffffffffffffffffffffffffffffffffffff021916908373ffffffffffffffffffffffffffffffffffffffff1602179055508173ffffffffffffffffffffffffffffffffffffffff168173ffffffffffffffffffffffffffffffffffffffff167f8be0079c531659141344cd1fd0a4f28419497f9722a3daafe3b4186f6b6457e060405160405180910390a35050565b8173ffffffffffffffffffffffffffffffffffffffff168373ffffffffffffffffffffffffffffffffffffffff161415611aba576040517f08c379a0000000000000000000000000000000000000000000000000000000008152600401611ab190613355565b60405180910390fd5b80600560008573ffffffffffffffffffffffffffffffffffffffff1673ffffffffffffffffffffffffffffffffffffffff16815260200190815260200160002060008473ffffffffffffffffffffffffffffffffffffffff1673ffffffffffffffffffffffffffffffffffffffff16815260200190815260200160002060006101000a81548160ff0219169083151502179055508173ffffffffffffffffffffffffffffffffffffffff168373ffffffffffffffffffffffffffffffffffffffff167f17307eab39ab6107e8899845ad3d59bd9653f200f220920489ca2b5937696c3183604051611bab91906124cd565b60405180910390a3505050565b611bc3848484611464565b611bcf84848484611dab565b611c0e576040517f08c379a0000000000000000000000000000000000000000000000000000000008152600401611c05906133e7565b60405180910390fd5b50505050565b606060405180602001604052806000815250905090565b606060006001611c3a84611f42565b01905060008167ffffffffffffffff811115611c5957611c58612805565b5b6040519080825280601f01601f191660200182016040528015611c8b5781602001600182028036833780820191505090505b509050600082602001820190505b600115611cf8578080600190039150507f3031323334353637383961626364656600000000000000000000000000000000600a86061a8153600a8581611ce257611ce1612e51565b5b0494506000851415611cf357611cf8565b611c99565b819350505050919050565b60008073ffffffffffffffffffffffffffffffffffffffff16611d258361192a565b73ffffffffffffffffffffffffffffffffffffffff1614159050919050565b50505050565b50505050565b611d5a8383612095565b611d676000848484611dab565b611da6576040517f08c379a0000000000000000000000000000000000000000000000000000000008152600401611d9d906133e7565b60405180910390fd5b505050565b6000611dcc8473ffffffffffffffffffffffffffffffffffffffff16611236565b15611f35578373ffffffffffffffffffffffffffffffffffffffff1663150b7a02611df561130e565b8786866040518563ffffffff1660e01b8152600401611e17949392919061345c565b602060405180830381600087803b158015611e3157600080fd5b505af1925050508015611e6257506040513d601f19601f82011682018060405250810190611e5f91906134bd565b60015b611ee5573d8060008114611e92576040519150601f19603f3d011682016040523d82523d6000602084013e611e97565b606091505b50600081511415611edd576040517f08c379a0000000000000000000000000000000000000000000000000000000008152600401611ed4906133e7565b60405180910390fd5b805181602001fd5b63150b7a0260e01b7bffffffffffffffffffffffffffffffffffffffffffffffffffffffff1916817bffffffffffffffffffffffffffffffffffffffffffffffffffffffff191614915050611f3a565b600190505b949350505050565b600080600090507a184f03e93ff9f4daa797ed6e38ed64bf6a1f0100000000000000008310611fa0577a184f03e93ff9f4daa797ed6e38ed64bf6a1f0100000000000000008381611f9657611f95612e51565b5b0492506040810190505b6d04ee2d6d415b85acef81000000008310611fdd576d04ee2d6d415b85acef81000000008381611fd357611fd2612e51565b5b0492506020810190505b662386f26fc10000831061200c57662386f26fc10000838161200257612001612e51565b5b0492506010810190505b6305f5e1008310612035576305f5e100838161202b5761202a612e51565b5b0492506008810190505b612710831061205a5761271083816120505761204f612e51565b5b0492506004810190505b6064831061207d576064838161207357612072612e51565b5b0492506002810190505b600a831061208c576001810190505b80915050919050565b600073ffffffffffffffffffffffffffffffffffffffff168273ffffffffffffffffffffffffffffffffffffffff161415612105576040517f08c379a00000000000000000000000000000000000000000000000000000000081526004016120fc90613536565b60405180910390fd5b61210e81611d03565b1561214e576040517f08c379a0000000000000000000000000000000000000000000000000000000008152600401612145906135a2565b60405180910390fd5b61215c600083836001611d44565b61216581611d03565b156121a5576040517f08c379a000000000000000000000000000000000000000000000000000000000815260040161219c906135a2565b60405180910390fd5b6001600360008473ffffffffffffffffffffffffffffffffffffffff1673ffffffffffffffffffffffffffffffffffffffff16815260200190815260200160002060008282540192505081905550816002600083815260200190815260200160002060006101000a81548173ffffffffffffffffffffffffffffffffffffffff021916908373ffffffffffffffffffffffffffffffffffffffff160217905550808273ffffffffffffffffffffffffffffffffffffffff16600073ffffffffffffffffffffffffffffffffffffffff167fddf252ad1be2c89b69c2b068fc378daa952ba7f163c4a11628f55a4df523b3ef60405160405180910390a46122af600083836001611d4a565b5050565b8280546122bf90612b78565b90600052602060002090601f0160209004810192826122e15760008555612328565b82601f106122fa57805160ff1916838001178555612328565b82800160010185558215612328579182015b8281111561232757825182559160200191906001019061230c565b5b5090506123359190612339565b5090565b5b8082111561235257600081600090555060010161233a565b5090565b600081905092915050565b50565b6000612371600083612356565b915061237c82612361565b600082019050919050565b600061239282612364565b9150819050919050565b600082825260208201905092915050565b7f416c69656e733a204661696c656420746f2070617373206f6e2076616c756500600082015250565b60006123e3601f8361239c565b91506123ee826123ad565b602082019050919050565b60006020820190508181036000830152612412816123d6565b9050919050565b6000604051905090565b600080fd5b600080fd5b60007fffffffff0000000000000000000000000000000000000000000000000000000082169050919050565b6124628161242d565b811461246d57600080fd5b50565b60008135905061247f81612459565b92915050565b60006020828403121561249b5761249a612423565b5b60006124a984828501612470565b91505092915050565b60008115159050919050565b6124c7816124b2565b82525050565b60006020820190506124e260008301846124be565b92915050565b600081519050919050565b60005b838110156125115780820151818401526020810190506124f6565b83811115612520576000848401525b50505050565b6000601f19601f8301169050919050565b6000612542826124e8565b61254c818561239c565b935061255c8185602086016124f3565b61256581612526565b840191505092915050565b6000602082019050818103600083015261258a8184612537565b905092915050565b6000819050919050565b6125a581612592565b81146125b057600080fd5b50565b6000813590506125c28161259c565b92915050565b6000602082840312156125de576125dd612423565b5b60006125ec848285016125b3565b91505092915050565b600073ffffffffffffffffffffffffffffffffffffffff82169050919050565b6000612620826125f5565b9050919050565b61263081612615565b82525050565b600060208201905061264b6000830184612627565b92915050565b61265a81612615565b811461266557600080fd5b50565b60008135905061267781612651565b92915050565b6000806040838503121561269457612693612423565b5b60006126a285828601612668565b92505060206126b3858286016125b3565b9150509250929050565b6126c681612592565b82525050565b60006020820190506126e160008301846126bd565b92915050565b600080600060608486031215612700576126ff612423565b5b600061270e86828701612668565b935050602061271f86828701612668565b9250506040612730868287016125b3565b9150509250925092565b600060408201905061274f60008301856126bd565b61275c60208301846126bd565b9392505050565b600061276e826125f5565b9050919050565b61277e81612763565b811461278957600080fd5b50565b60008135905061279b81612775565b92915050565b6000602082840312156127b7576127b6612423565b5b60006127c58482850161278c565b91505092915050565b6000602082840312156127e4576127e3612423565b5b60006127f284828501612668565b91505092915050565b600080fd5b600080fd5b7f4e487b7100000000000000000000000000000000000000000000000000000000600052604160045260246000fd5b61283d82612526565b810181811067ffffffffffffffff8211171561285c5761285b612805565b5b80604052505050565b600061286f612419565b905061287b8282612834565b919050565b600067ffffffffffffffff82111561289b5761289a612805565b5b6128a482612526565b9050602081019050919050565b82818337600083830152505050565b60006128d36128ce84612880565b612865565b9050828152602081018484840111156128ef576128ee612800565b5b6128fa8482856128b1565b509392505050565b600082601f830112612917576129166127fb565b5b81356129278482602086016128c0565b91505092915050565b60006020828403121561294657612945612423565b5b600082013567ffffffffffffffff81111561296457612963612428565b5b61297084828501612902565b91505092915050565b612982816124b2565b811461298d57600080fd5b50565b60008135905061299f81612979565b92915050565b600080604083850312156129bc576129bb612423565b5b60006129ca85828601612668565b92505060206129db85828601612990565b9150509250929050565b600067ffffffffffffffff821115612a00576129ff612805565b5b612a0982612526565b9050602081019050919050565b6000612a29612a24846129e5565b612865565b905082815260208101848484011115612a4557612a44612800565b5b612a508482856128b1565b509392505050565b600082601f830112612a6d57612a6c6127fb565b5b8135612a7d848260208601612a16565b91505092915050565b60008060008060808587031215612aa057612a9f612423565b5b6000612aae87828801612668565b9450506020612abf87828801612668565b9350506040612ad0878288016125b3565b925050606085013567ffffffffffffffff811115612af157612af0612428565b5b612afd87828801612a58565b91505092959194509250565b60008060408385031215612b2057612b1f612423565b5b6000612b2e85828601612668565b9250506020612b3f85828601612668565b9150509250929050565b7f4e487b7100000000000000000000000000000000000000000000000000000000600052602260045260246000fd5b60006002820490506001821680612b9057607f821691505b60208210811415612ba457612ba3612b49565b5b50919050565b7f4552433732313a20617070726f76616c20746f2063757272656e74206f776e6560008201527f7200000000000000000000000000000000000000000000000000000000000000602082015250565b6000612c0660218361239c565b9150612c1182612baa565b604082019050919050565b60006020820190508181036000830152612c3581612bf9565b9050919050565b7f4552433732313a20617070726f76652063616c6c6572206973206e6f7420746f60008201527f6b656e206f776e6572206f7220617070726f76656420666f7220616c6c000000602082015250565b6000612c98603d8361239c565b9150612ca382612c3c565b604082019050919050565b60006020820190508181036000830152612cc781612c8b565b9050919050565b7f4552433732313a2063616c6c6572206973206e6f7420746f6b656e206f776e6560008201527f72206f7220617070726f76656400000000000000000000000000000000000000602082015250565b6000612d2a602d8361239c565b9150612d3582612cce565b604082019050919050565b60006020820190508181036000830152612d5981612d1d565b9050919050565b7f416c69656e733a20737472656e67746820616c72656164792073657400000000600082015250565b6000612d96601c8361239c565b9150612da182612d60565b602082019050919050565b60006020820190508181036000830152612dc581612d89565b9050919050565b7f4e487b7100000000000000000000000000000000000000000000000000000000600052601160045260246000fd5b6000612e0682612592565b9150612e1183612592565b9250827fffffffffffffffffffffffffffffffffffffffffffffffffffffffffffffffff03821115612e4657612e45612dcc565b5b828201905092915050565b7f4e487b7100000000000000000000000000000000000000000000000000000000600052601260045260246000fd5b6000612e8b82612592565b9150612e9683612592565b925082612ea657612ea5612e51565b5b828206905092915050565b7f4552433732313a20696e76616c696420746f6b656e2049440000000000000000600082015250565b6000612ee760188361239c565b9150612ef282612eb1565b602082019050919050565b60006020820190508181036000830152612f1681612eda565b9050919050565b7f416c69656e733a2076616c7565206d757374206265206d696e7420636f737400600082015250565b6000612f53601f8361239c565b9150612f5e82612f1d565b602082019050919050565b60006020820190508181036000830152612f8281612f46565b9050919050565b7f416c69656e733a204661696c656420746f207265696d62757273650000000000600082015250565b6000612fbf601b8361239c565b9150612fca82612f89565b602082019050919050565b60006020820190508181036000830152612fee81612fb2565b9050919050565b7f4552433732313a2061646472657373207a65726f206973206e6f74206120766160008201527f6c6964206f776e65720000000000000000000000000000000000000000000000602082015250565b600061305160298361239c565b915061305c82612ff5565b604082019050919050565b6000602082019050818103600083015261308081613044565b9050919050565b600081905092915050565b600061309d826124e8565b6130a78185613087565b93506130b78185602086016124f3565b80840191505092915050565b60006130cf8285613092565b91506130db8284613092565b91508190509392505050565b7f4f776e61626c653a206e6577206f776e657220697320746865207a65726f206160008201527f6464726573730000000000000000000000000000000000000000000000000000602082015250565b600061314360268361239c565b915061314e826130e7565b604082019050919050565b6000602082019050818103600083015261317281613136565b9050919050565b7f4552433732313a207472616e736665722066726f6d20696e636f72726563742060008201527f6f776e6572000000000000000000000000000000000000000000000000000000602082015250565b60006131d560258361239c565b91506131e082613179565b604082019050919050565b60006020820190508181036000830152613204816131c8565b9050919050565b7f4552433732313a207472616e7366657220746f20746865207a65726f2061646460008201527f7265737300000000000000000000000000000000000000000000000000000000602082015250565b600061326760248361239c565b91506132728261320b565b604082019050919050565b600060208201905081810360008301526132968161325a565b9050919050565b7f4f776e61626c653a2063616c6c6572206973206e6f7420746865206f776e6572600082015250565b60006132d360208361239c565b91506132de8261329d565b602082019050919050565b60006020820190508181036000830152613302816132c6565b9050919050565b7f4552433732313a20617070726f766520746f2063616c6c657200000000000000600082015250565b600061333f60198361239c565b915061334a82613309565b602082019050919050565b6000602082019050818103600083015261336e81613332565b9050919050565b7f4552433732313a207472616e7366657220746f206e6f6e20455243373231526560008201527f63656976657220696d706c656d656e7465720000000000000000000000000000602082015250565b60006133d160328361239c565b91506133dc82613375565b604082019050919050565b60006020820190508181036000830152613400816133c4565b9050919050565b600081519050919050565b600082825260208201905092915050565b600061342e82613407565b6134388185613412565b93506134488185602086016124f3565b61345181612526565b840191505092915050565b60006080820190506134716000830187612627565b61347e6020830186612627565b61348b60408301856126bd565b818103606083015261349d8184613423565b905095945050505050565b6000815190506134b781612459565b92915050565b6000602082840312156134d3576134d2612423565b5b60006134e1848285016134a8565b91505092915050565b7f4552433732313a206d696e7420746f20746865207a65726f2061646472657373600082015250565b600061352060208361239c565b915061352b826134ea565b602082019050919050565b6000602082019050818103600083015261354f81613513565b9050919050565b7f4552433732313a20746f6b656e20616c7265616479206d696e74656400000000600082015250565b600061358c601c8361239c565b915061359782613556565b602082019050919050565b600060208201905081810360008301526135bb8161357f565b905091905056fea2646970667358221220fed79cdaf9b01c04b334696171bc7e4269eb25e6808ae032ad5ad0e17b90178064736f6c63430008090033",
  "linkReferences": {},
  "deployedLinkReferences": {}
}