{
  "_format": "hh-sol-artifact-1",
  "contractName": "BattlefieldEarth",
  "sourceName": "contracts/BattlefieldEarth.sol",
  "abi": [
    {
      "inputs": [],
      "stateMutability": "nonpayable",
      "type": "constructor"
    },
    {
      "anonymous": false,
      "inputs": [
        {
          "indexed": true,
          "internalType": "address",
          "name": "previousOwner",
          "type": "address"
        },
        {
          "indexed": true,
          "internalType": "address",
          "name": "newOwner",
          "type": "address"
        }
      ],
      "name": "OwnershipTransferred",
      "type": "event"
    },
    {
      "inputs": [
        {
          "internalType": "uint256",
          "name": "_tokenId",
          "type": "uint256"
        }
      ],
      "name": "attack",
      "outputs": [],
      "stateMutability": "nonpayable",
      "type": "function"
    },
    {
      "inputs": [],
      "name": "getAliens",
      "outputs": [
        {
          "components": [
            {
              "internalType": "uint256",
              "name": "tokenId",
              "type": "uint256"
            },
            {
              "internalType": "address",
              "name": "owner",
              "type": "address"
            }
          ],
          "internalType": "struct BattlefieldEarth.AlienOnPlanet[]",
          "name": "",
          "type": "tuple[]"
        }
      ],
      "stateMutability": "view",
      "type": "function"
    },
    {
      "inputs": [
        {
          "internalType": "address",
          "name": "",
          "type": "address"
        },
        {
          "internalType": "address",
          "name": "",
          "type": "address"
        },
        {
          "internalType": "uint256[]",
          "name": "",
          "type": "uint256[]"
        },
        {
          "internalType": "uint256[]",
          "name": "",
          "type": "uint256[]"
        },
        {
          "internalType": "bytes",
          "name": "",
          "type": "bytes"
        }
      ],
      "name": "onERC1155BatchReceived",
      "outputs": [
        {
          "internalType": "bytes4",
          "name": "",
          "type": "bytes4"
        }
      ],
      "stateMutability": "nonpayable",
      "type": "function"
    },
    {
      "inputs": [
        {
          "internalType": "address",
          "name": "",
          "type": "address"
        },
        {
          "internalType": "address",
          "name": "",
          "type": "address"
        },
        {
          "internalType": "uint256",
          "name": "",
          "type": "uint256"
        },
        {
          "internalType": "uint256",
          "name": "",
          "type": "uint256"
        },
        {
          "internalType": "bytes",
          "name": "",
          "type": "bytes"
        }
      ],
      "name": "onERC1155Received",
      "outputs": [
        {
          "internalType": "bytes4",
          "name": "",
          "type": "bytes4"
        }
      ],
      "stateMutability": "nonpayable",
      "type": "function"
    },
    {
      "inputs": [
        {
          "internalType": "address",
          "name": "",
          "type": "address"
        },
        {
          "internalType": "address",
          "name": "",
          "type": "address"
        },
        {
          "internalType": "uint256",
          "name": "",
          "type": "uint256"
        },
        {
          "internalType": "bytes",
          "name": "",
          "type": "bytes"
        }
      ],
      "name": "onERC721Received",
      "outputs": [
        {
          "internalType": "bytes4",
          "name": "",
          "type": "bytes4"
        }
      ],
      "stateMutability": "nonpayable",
      "type": "function"
    },
    {
      "inputs": [],
      "name": "owner",
      "outputs": [
        {
          "internalType": "address",
          "name": "",
          "type": "address"
        }
      ],
      "stateMutability": "view",
      "type": "function"
    },
    {
      "inputs": [],
      "name": "populatePlanet",
      "outputs": [],
      "stateMutability": "nonpayable",
      "type": "function"
    },
    {
      "inputs": [],
      "name": "renounceOwnership",
      "outputs": [],
      "stateMutability": "nonpayable",
      "type": "function"
    },
    {
      "inputs": [
        {
          "internalType": "uint256",
          "name": "numberOfTokens",
          "type": "uint256"
        }
      ],
      "name": "sellRewardTokens",
      "outputs": [],
      "stateMutability": "nonpayable",
      "type": "function"
    },
    {
      "inputs": [
        {
          "internalType": "address",
          "name": "_aliensContract",
          "type": "address"
        }
      ],
      "name": "setAliensContract",
      "outputs": [],
      "stateMutability": "nonpayable",
      "type": "function"
    },
    {
      "inputs": [
        {
          "internalType": "address",
          "name": "_equipmentContract",
          "type": "address"
        }
      ],
      "name": "setEquipmentContract",
      "outputs": [],
      "stateMutability": "nonpayable",
      "type": "function"
    },
    {
      "inputs": [
        {
          "internalType": "bytes4",
          "name": "interfaceId",
          "type": "bytes4"
        }
      ],
      "name": "supportsInterface",
      "outputs": [
        {
          "internalType": "bool",
          "name": "",
          "type": "bool"
        }
      ],
      "stateMutability": "view",
      "type": "function"
    },
    {
      "inputs": [
        {
          "internalType": "address",
          "name": "newOwner",
          "type": "address"
        }
      ],
      "name": "transferOwnership",
      "outputs": [],
      "stateMutability": "nonpayable",
      "type": "function"
    },
    {
      "stateMutability": "payable",
      "type": "receive"
    }
  ],
  "bytecode": "0x608060405234801561001057600080fd5b5061002d61002261003260201b60201c565b61003a60201b60201c565b6100fe565b600033905090565b60008060009054906101000a900473ffffffffffffffffffffffffffffffffffffffff169050816000806101000a81548173ffffffffffffffffffffffffffffffffffffffff021916908373ffffffffffffffffffffffffffffffffffffffff1602179055508173ffffffffffffffffffffffffffffffffffffffff168173ffffffffffffffffffffffffffffffffffffffff167f8be0079c531659141344cd1fd0a4f28419497f9722a3daafe3b4186f6b6457e060405160405180910390a35050565b611e3d8061010d6000396000f3fe6080604052600436106100c65760003560e01c806364dd891a1161007f5780638da5cb5b116100595780638da5cb5b146102fd578063bc197c8114610328578063f23a6e6114610365578063f2fde38b146103a257610181565b806364dd891a1461029457806369f347c9146102bd578063715018a6146102e657610181565b806301ffc9a714610186578063047696ca146101c3578063150b7a02146101ec578063393626da1461022957806352d68d6c146102405780636395ef191461026957610181565b366101815760006100d56103cb565b73ffffffffffffffffffffffffffffffffffffffff16346040516100f890611177565b60006040518083038185875af1925050503d8060008114610135576040519150601f19603f3d011682016040523d82523d6000602084013e61013a565b606091505b505090508061017e576040517f08c379a00000000000000000000000000000000000000000000000000000000081526004016101759061120f565b60405180910390fd5b50005b600080fd5b34801561019257600080fd5b506101ad60048036038101906101a8919061129b565b6103f4565b6040516101ba91906112e3565b60405180910390f35b3480156101cf57600080fd5b506101ea60048036038101906101e59190611334565b61046e565b005b3480156101f857600080fd5b50610213600480360381019061020e9190611505565b610672565b6040516102209190611597565b60405180910390f35b34801561023557600080fd5b5061023e610686565b005b34801561024c57600080fd5b50610267600480360381019061026291906115b2565b610832565b005b34801561027557600080fd5b5061027e61087e565b60405161028b91906116db565b60405180910390f35b3480156102a057600080fd5b506102bb60048036038101906102b69190611334565b61093d565b005b3480156102c957600080fd5b506102e460048036038101906102df91906115b2565b610c1c565b005b3480156102f257600080fd5b506102fb610c68565b005b34801561030957600080fd5b506103126103cb565b60405161031f919061170c565b60405180910390f35b34801561033457600080fd5b5061034f600480360381019061034a91906117ef565b610c7c565b60405161035c9190611597565b60405180910390f35b34801561037157600080fd5b5061038c600480360381019061038791906118be565b610c91565b6040516103999190611597565b60405180910390f35b3480156103ae57600080fd5b506103c960048036038101906103c491906115b2565b610ca6565b005b60008060009054906101000a900473ffffffffffffffffffffffffffffffffffffffff16905090565b60007f4e2312e0000000000000000000000000000000000000000000000000000000007bffffffffffffffffffffffffffffffffffffffffffffffffffffffff1916827bffffffffffffffffffffffffffffffffffffffffffffffffffffffff19161480610467575061046682610d2a565b5b9050919050565b600260009054906101000a900473ffffffffffffffffffffffffffffffffffffffff1673ffffffffffffffffffffffffffffffffffffffff1663f5298aca336001846040518463ffffffff1660e01b81526004016104ce939291906119ac565b600060405180830381600087803b1580156104e857600080fd5b505af11580156104fc573d6000803e3d6000fd5b505050506000600260009054906101000a900473ffffffffffffffffffffffffffffffffffffffff1673ffffffffffffffffffffffffffffffffffffffff166375b0d9cd60016040518263ffffffff1660e01b815260040161055e91906119e3565b60206040518083038186803b15801561057657600080fd5b505afa15801561058a573d6000803e3d6000fd5b505050506040513d601f19601f820116820180604052508101906105ae9190611a13565b9050600081476105be9190611a9e565b905060003373ffffffffffffffffffffffffffffffffffffffff16826040516105e690611177565b60006040518083038185875af1925050503d8060008114610623576040519150601f19603f3d011682016040523d82523d6000602084013e610628565b606091505b505090508061066c576040517f08c379a000000000000000000000000000000000000000000000000000000000815260040161066390611b1b565b60405180910390fd5b50505050565b600063150b7a0260e01b9050949350505050565b61068e610d94565b6000600380549050146106d6576040517f08c379a00000000000000000000000000000000000000000000000000000000081526004016106cd90611bad565b60405180910390fd5b60005b600481101561082f57600160009054906101000a900473ffffffffffffffffffffffffffffffffffffffff1673ffffffffffffffffffffffffffffffffffffffff166342842e0e3330846040518463ffffffff1660e01b815260040161074193929190611bcd565b600060405180830381600087803b15801561075b57600080fd5b505af115801561076f573d6000803e3d6000fd5b50505050600360405180604001604052808381526020013373ffffffffffffffffffffffffffffffffffffffff1681525090806001815401808255809150506001900390600052602060002090600202016000909190919091506000820151816000015560208201518160010160006101000a81548173ffffffffffffffffffffffffffffffffffffffff021916908373ffffffffffffffffffffffffffffffffffffffff1602179055505050808061082790611c04565b9150506106d9565b50565b61083a610d94565b80600260006101000a81548173ffffffffffffffffffffffffffffffffffffffff021916908373ffffffffffffffffffffffffffffffffffffffff16021790555050565b60606003805480602002602001604051908101604052809291908181526020016000905b828210156109345783829060005260206000209060020201604051806040016040529081600082015481526020016001820160009054906101000a900473ffffffffffffffffffffffffffffffffffffffff1673ffffffffffffffffffffffffffffffffffffffff1673ffffffffffffffffffffffffffffffffffffffff1681525050815260200190600101906108a2565b50505050905090565b600160009054906101000a900473ffffffffffffffffffffffffffffffffffffffff1673ffffffffffffffffffffffffffffffffffffffff166342842e0e3330846040518463ffffffff1660e01b815260040161099c93929190611bcd565b600060405180830381600087803b1580156109b657600080fd5b505af11580156109ca573d6000803e3d6000fd5b50505050600260009054906101000a900473ffffffffffffffffffffffffffffffffffffffff1673ffffffffffffffffffffffffffffffffffffffff1663f5298aca33600060016040518463ffffffff1660e01b8152600401610a2f93929190611c88565b600060405180830381600087803b158015610a4957600080fd5b505af1158015610a5d573d6000803e3d6000fd5b505050506000610a6b610e12565b9050600160009054906101000a900473ffffffffffffffffffffffffffffffffffffffff1673ffffffffffffffffffffffffffffffffffffffff166342842e0e3060038481548110610ac057610abf611cbf565b5b906000526020600020906002020160010160009054906101000a900473ffffffffffffffffffffffffffffffffffffffff1660038581548110610b0657610b05611cbf565b5b9060005260206000209060020201600001546040518463ffffffff1660e01b8152600401610b3693929190611bcd565b600060405180830381600087803b158015610b5057600080fd5b505af1158015610b64573d6000803e3d6000fd5b50505050600060405180604001604052808481526020013373ffffffffffffffffffffffffffffffffffffffff1681525090508060038381548110610bac57610bab611cbf565b5b90600052602060002090600202016000820151816000015560208201518160010160006101000a81548173ffffffffffffffffffffffffffffffffffffffff021916908373ffffffffffffffffffffffffffffffffffffffff160217905550905050610c1783610f4f565b505050565b610c24610d94565b80600160006101000a81548173ffffffffffffffffffffffffffffffffffffffff021916908373ffffffffffffffffffffffffffffffffffffffff16021790555050565b610c70610d94565b610c7a600061107a565b565b600063bc197c8160e01b905095945050505050565b600063f23a6e6160e01b905095945050505050565b610cae610d94565b600073ffffffffffffffffffffffffffffffffffffffff168173ffffffffffffffffffffffffffffffffffffffff161415610d1e576040517f08c379a0000000000000000000000000000000000000000000000000000000008152600401610d1590611d60565b60405180910390fd5b610d278161107a565b50565b60007f01ffc9a7000000000000000000000000000000000000000000000000000000007bffffffffffffffffffffffffffffffffffffffffffffffffffffffff1916827bffffffffffffffffffffffffffffffffffffffffffffffffffffffff1916149050919050565b610d9c61113e565b73ffffffffffffffffffffffffffffffffffffffff16610dba6103cb565b73ffffffffffffffffffffffffffffffffffffffff1614610e10576040517f08c379a0000000000000000000000000000000000000000000000000000000008152600401610e0790611dcc565b60405180910390fd5b565b600080600080600090505b600380549050811015610f46576000600160009054906101000a900473ffffffffffffffffffffffffffffffffffffffff1673ffffffffffffffffffffffffffffffffffffffff1663e07d9ab660038481548110610e7e57610e7d611cbf565b5b9060005260206000209060020201600001546040518263ffffffff1660e01b8152600401610eac9190611dec565b60206040518083038186803b158015610ec457600080fd5b505afa158015610ed8573d6000803e3d6000fd5b505050506040513d601f19601f82011682018060405250810190610efc9190611a13565b905083811015610f325780935060038281548110610f1d57610f1c611cbf565b5b90600052602060002090600202016000015492505b508080610f3e90611c04565b915050610e1d565b50809250505090565b60005b600380549050811015611076578160038281548110610f7457610f73611cbf565b5b9060005260206000209060020201600001541461106357600260009054906101000a900473ffffffffffffffffffffffffffffffffffffffff1673ffffffffffffffffffffffffffffffffffffffff16634a46b81160038381548110610fdd57610fdc611cbf565b5b906000526020600020906002020160010160009054906101000a900473ffffffffffffffffffffffffffffffffffffffff166001806040518463ffffffff1660e01b815260040161103093929190611c88565b600060405180830381600087803b15801561104a57600080fd5b505af115801561105e573d6000803e3d6000fd5b505050505b808061106e90611c04565b915050610f52565b5050565b60008060009054906101000a900473ffffffffffffffffffffffffffffffffffffffff169050816000806101000a81548173ffffffffffffffffffffffffffffffffffffffff021916908373ffffffffffffffffffffffffffffffffffffffff1602179055508173ffffffffffffffffffffffffffffffffffffffff168173ffffffffffffffffffffffffffffffffffffffff167f8be0079c531659141344cd1fd0a4f28419497f9722a3daafe3b4186f6b6457e060405160405180910390a35050565b600033905090565b600081905092915050565b50565b6000611161600083611146565b915061116c82611151565b600082019050919050565b600061118282611154565b9150819050919050565b600082825260208201905092915050565b7f426174746c656669656c643a204661696c656420746f2070617373206f6e207660008201527f616c756500000000000000000000000000000000000000000000000000000000602082015250565b60006111f960248361118c565b91506112048261119d565b604082019050919050565b60006020820190508181036000830152611228816111ec565b9050919050565b6000604051905090565b600080fd5b600080fd5b60007fffffffff0000000000000000000000000000000000000000000000000000000082169050919050565b61127881611243565b811461128357600080fd5b50565b6000813590506112958161126f565b92915050565b6000602082840312156112b1576112b0611239565b5b60006112bf84828501611286565b91505092915050565b60008115159050919050565b6112dd816112c8565b82525050565b60006020820190506112f860008301846112d4565b92915050565b6000819050919050565b611311816112fe565b811461131c57600080fd5b50565b60008135905061132e81611308565b92915050565b60006020828403121561134a57611349611239565b5b60006113588482850161131f565b91505092915050565b600073ffffffffffffffffffffffffffffffffffffffff82169050919050565b600061138c82611361565b9050919050565b61139c81611381565b81146113a757600080fd5b50565b6000813590506113b981611393565b92915050565b600080fd5b600080fd5b6000601f19601f8301169050919050565b7f4e487b7100000000000000000000000000000000000000000000000000000000600052604160045260246000fd5b611412826113c9565b810181811067ffffffffffffffff82111715611431576114306113da565b5b80604052505050565b600061144461122f565b90506114508282611409565b919050565b600067ffffffffffffffff8211156114705761146f6113da565b5b611479826113c9565b9050602081019050919050565b82818337600083830152505050565b60006114a86114a384611455565b61143a565b9050828152602081018484840111156114c4576114c36113c4565b5b6114cf848285611486565b509392505050565b600082601f8301126114ec576114eb6113bf565b5b81356114fc848260208601611495565b91505092915050565b6000806000806080858703121561151f5761151e611239565b5b600061152d878288016113aa565b945050602061153e878288016113aa565b935050604061154f8782880161131f565b925050606085013567ffffffffffffffff8111156115705761156f61123e565b5b61157c878288016114d7565b91505092959194509250565b61159181611243565b82525050565b60006020820190506115ac6000830184611588565b92915050565b6000602082840312156115c8576115c7611239565b5b60006115d6848285016113aa565b91505092915050565b600081519050919050565b600082825260208201905092915050565b6000819050602082019050919050565b611614816112fe565b82525050565b61162381611381565b82525050565b60408201600082015161163f600085018261160b565b506020820151611652602085018261161a565b50505050565b60006116648383611629565b60408301905092915050565b6000602082019050919050565b6000611688826115df565b61169281856115ea565b935061169d836115fb565b8060005b838110156116ce5781516116b58882611658565b97506116c083611670565b9250506001810190506116a1565b5085935050505092915050565b600060208201905081810360008301526116f5818461167d565b905092915050565b61170681611381565b82525050565b600060208201905061172160008301846116fd565b92915050565b600067ffffffffffffffff821115611742576117416113da565b5b602082029050602081019050919050565b600080fd5b600061176b61176684611727565b61143a565b9050808382526020820190506020840283018581111561178e5761178d611753565b5b835b818110156117b757806117a3888261131f565b845260208401935050602081019050611790565b5050509392505050565b600082601f8301126117d6576117d56113bf565b5b81356117e6848260208601611758565b91505092915050565b600080600080600060a0868803121561180b5761180a611239565b5b6000611819888289016113aa565b955050602061182a888289016113aa565b945050604086013567ffffffffffffffff81111561184b5761184a61123e565b5b611857888289016117c1565b935050606086013567ffffffffffffffff8111156118785761187761123e565b5b611884888289016117c1565b925050608086013567ffffffffffffffff8111156118a5576118a461123e565b5b6118b1888289016114d7565b9150509295509295909350565b600080600080600060a086880312156118da576118d9611239565b5b60006118e8888289016113aa565b95505060206118f9888289016113aa565b945050604061190a8882890161131f565b935050606061191b8882890161131f565b925050608086013567ffffffffffffffff81111561193c5761193b61123e565b5b611948888289016114d7565b9150509295509295909350565b600060ff82169050919050565b6000819050919050565b600061198761198261197d84611955565b611962565b6112fe565b9050919050565b6119978161196c565b82525050565b6119a6816112fe565b82525050565b60006060820190506119c160008301866116fd565b6119ce602083018561198e565b6119db604083018461199d565b949350505050565b60006020820190506119f8600083018461198e565b92915050565b600081519050611a0d81611308565b92915050565b600060208284031215611a2957611a28611239565b5b6000611a37848285016119fe565b91505092915050565b7f4e487b7100000000000000000000000000000000000000000000000000000000600052601260045260246000fd5b7f4e487b7100000000000000000000000000000000000000000000000000000000600052601160045260246000fd5b6000611aa9826112fe565b9150611ab4836112fe565b925082611ac457611ac3611a40565b5b828204905092915050565b7f426174746c656669656c643a204661696c656420746f207265696d6275727365600082015250565b6000611b0560208361118c565b9150611b1082611acf565b602082019050919050565b60006020820190508181036000830152611b3481611af8565b9050919050565b7f426174746c656669656c6445617274683a20506c616e657420616c726561647960008201527f20706f70756c6174656400000000000000000000000000000000000000000000602082015250565b6000611b97602a8361118c565b9150611ba282611b3b565b604082019050919050565b60006020820190508181036000830152611bc681611b8a565b9050919050565b6000606082019050611be260008301866116fd565b611bef60208301856116fd565b611bfc604083018461199d565b949350505050565b6000611c0f826112fe565b91507fffffffffffffffffffffffffffffffffffffffffffffffffffffffffffffffff821415611c4257611c41611a6f565b5b600182019050919050565b6000819050919050565b6000611c72611c6d611c6884611c4d565b611962565b6112fe565b9050919050565b611c8281611c57565b82525050565b6000606082019050611c9d60008301866116fd565b611caa602083018561198e565b611cb76040830184611c79565b949350505050565b7f4e487b7100000000000000000000000000000000000000000000000000000000600052603260045260246000fd5b7f4f776e61626c653a206e6577206f776e657220697320746865207a65726f206160008201527f6464726573730000000000000000000000000000000000000000000000000000602082015250565b6000611d4a60268361118c565b9150611d5582611cee565b604082019050919050565b60006020820190508181036000830152611d7981611d3d565b9050919050565b7f4f776e61626c653a2063616c6c6572206973206e6f7420746865206f776e6572600082015250565b6000611db660208361118c565b9150611dc182611d80565b602082019050919050565b60006020820190508181036000830152611de581611da9565b9050919050565b6000602082019050611e01600083018461199d565b9291505056fea264697066735822122091a4e757101d0370ceb2e4e5514fb87f1196986597a1b3b28f5a20f3b40bb23864736f6c63430008090033",
  "linkReferences": {},
  "deployedLinkReferences": {}
}