{
  "_format": "hh-sol-artifact-1",
  "contractName": "Equipment",
  "sourceName": "contracts/Equipment.sol",
  "abi": [
    {
      "inputs": [],
      "stateMutability": "nonpayable",
      "type": "constructor"
    },
    {
      "anonymous": false,
      "inputs": [
        {
          "indexed": true,
          "internalType": "address",
          "name": "account",
          "type": "address"
        },
        {
          "indexed": true,
          "internalType": "address",
          "name": "operator",
          "type": "address"
        },
        {
          "indexed": false,
          "internalType": "bool",
          "name": "approved",
          "type": "bool"
        }
      ],
      "name": "ApprovalForAll",
      "type": "event"
    },
    {
      "anonymous": false,
      "inputs": [
        {
          "indexed": true,
          "internalType": "address",
          "name": "previousOwner",
          "type": "address"
        },
        {
          "indexed": true,
          "internalType": "address",
          "name": "newOwner",
          "type": "address"
        }
      ],
      "name": "OwnershipTransferred",
      "type": "event"
    },
    {
      "anonymous": false,
      "inputs": [
        {
          "indexed": true,
          "internalType": "address",
          "name": "operator",
          "type": "address"
        },
        {
          "indexed": true,
          "internalType": "address",
          "name": "from",
          "type": "address"
        },
        {
          "indexed": true,
          "internalType": "address",
          "name": "to",
          "type": "address"
        },
        {
          "indexed": false,
          "internalType": "uint256[]",
          "name": "ids",
          "type": "uint256[]"
        },
        {
          "indexed": false,
          "internalType": "uint256[]",
          "name": "values",
          "type": "uint256[]"
        }
      ],
      "name": "TransferBatch",
      "type": "event"
    },
    {
      "anonymous": false,
      "inputs": [
        {
          "indexed": true,
          "internalType": "address",
          "name": "operator",
          "type": "address"
        },
        {
          "indexed": true,
          "internalType": "address",
          "name": "from",
          "type": "address"
        },
        {
          "indexed": true,
          "internalType": "address",
          "name": "to",
          "type": "address"
        },
        {
          "indexed": false,
          "internalType": "uint256",
          "name": "id",
          "type": "uint256"
        },
        {
          "indexed": false,
          "internalType": "uint256",
          "name": "value",
          "type": "uint256"
        }
      ],
      "name": "TransferSingle",
      "type": "event"
    },
    {
      "anonymous": false,
      "inputs": [
        {
          "indexed": false,
          "internalType": "string",
          "name": "value",
          "type": "string"
        },
        {
          "indexed": true,
          "internalType": "uint256",
          "name": "id",
          "type": "uint256"
        }
      ],
      "name": "URI",
      "type": "event"
    },
    {
      "inputs": [
        {
          "internalType": "address",
          "name": "account",
          "type": "address"
        },
        {
          "internalType": "uint256",
          "name": "id",
          "type": "uint256"
        }
      ],
      "name": "balanceOf",
      "outputs": [
        {
          "internalType": "uint256",
          "name": "",
          "type": "uint256"
        }
      ],
      "stateMutability": "view",
      "type": "function"
    },
    {
      "inputs": [
        {
          "internalType": "address[]",
          "name": "accounts",
          "type": "address[]"
        },
        {
          "internalType": "uint256[]",
          "name": "ids",
          "type": "uint256[]"
        }
      ],
      "name": "balanceOfBatch",
      "outputs": [
        {
          "internalType": "uint256[]",
          "name": "",
          "type": "uint256[]"
        }
      ],
      "stateMutability": "view",
      "type": "function"
    },
    {
      "inputs": [
        {
          "internalType": "address",
          "name": "account",
          "type": "address"
        },
        {
          "internalType": "uint256",
          "name": "id",
          "type": "uint256"
        },
        {
          "internalType": "uint256",
          "name": "amount",
          "type": "uint256"
        }
      ],
      "name": "burn",
      "outputs": [],
      "stateMutability": "nonpayable",
      "type": "function"
    },
    {
      "inputs": [
        {
          "internalType": "address",
          "name": "account",
          "type": "address"
        },
        {
          "internalType": "uint256[]",
          "name": "ids",
          "type": "uint256[]"
        },
        {
          "internalType": "uint256[]",
          "name": "values",
          "type": "uint256[]"
        }
      ],
      "name": "burnBatch",
      "outputs": [],
      "stateMutability": "nonpayable",
      "type": "function"
    },
    {
      "inputs": [],
      "name": "getMintCost",
      "outputs": [
        {
          "internalType": "uint256",
          "name": "",
          "type": "uint256"
        }
      ],
      "stateMutability": "view",
      "type": "function"
    },
    {
      "inputs": [
        {
          "internalType": "address",
          "name": "account",
          "type": "address"
        },
        {
          "internalType": "address",
          "name": "operator",
          "type": "address"
        }
      ],
      "name": "isApprovedForAll",
      "outputs": [
        {
          "internalType": "bool",
          "name": "",
          "type": "bool"
        }
      ],
      "stateMutability": "view",
      "type": "function"
    },
    {
      "inputs": [
        {
          "internalType": "address",
          "name": "recipient",
          "type": "address"
        },
        {
          "internalType": "uint256",
          "name": "id",
          "type": "uint256"
        },
        {
          "internalType": "uint256",
          "name": "amount",
          "type": "uint256"
        }
      ],
      "name": "mint",
      "outputs": [],
      "stateMutability": "payable",
      "type": "function"
    },
    {
      "inputs": [],
      "name": "owner",
      "outputs": [
        {
          "internalType": "address",
          "name": "",
          "type": "address"
        }
      ],
      "stateMutability": "view",
      "type": "function"
    },
    {
      "inputs": [],
      "name": "renounceOwnership",
      "outputs": [],
      "stateMutability": "nonpayable",
      "type": "function"
    },
    {
      "inputs": [
        {
          "internalType": "address",
          "name": "account",
          "type": "address"
        },
        {
          "internalType": "uint256",
          "name": "id",
          "type": "uint256"
        },
        {
          "internalType": "uint256",
          "name": "amount",
          "type": "uint256"
        }
      ],
      "name": "reward",
      "outputs": [],
      "stateMutability": "nonpayable",
      "type": "function"
    },
    {
      "inputs": [
        {
          "internalType": "address",
          "name": "from",
          "type": "address"
        },
        {
          "internalType": "address",
          "name": "to",
          "type": "address"
        },
        {
          "internalType": "uint256[]",
          "name": "ids",
          "type": "uint256[]"
        },
        {
          "internalType": "uint256[]",
          "name": "amounts",
          "type": "uint256[]"
        },
        {
          "internalType": "bytes",
          "name": "data",
          "type": "bytes"
        }
      ],
      "name": "safeBatchTransferFrom",
      "outputs": [],
      "stateMutability": "nonpayable",
      "type": "function"
    },
    {
      "inputs": [
        {
          "internalType": "address",
          "name": "from",
          "type": "address"
        },
        {
          "internalType": "address",
          "name": "to",
          "type": "address"
        },
        {
          "internalType": "uint256",
          "name": "id",
          "type": "uint256"
        },
        {
          "internalType": "uint256",
          "name": "amount",
          "type": "uint256"
        },
        {
          "internalType": "bytes",
          "name": "data",
          "type": "bytes"
        }
      ],
      "name": "safeTransferFrom",
      "outputs": [],
      "stateMutability": "nonpayable",
      "type": "function"
    },
    {
      "inputs": [
        {
          "internalType": "address",
          "name": "operator",
          "type": "address"
        },
        {
          "internalType": "bool",
          "name": "approved",
          "type": "bool"
        }
      ],
      "name": "setApprovalForAll",
      "outputs": [],
      "stateMutability": "nonpayable",
      "type": "function"
    },
    {
      "inputs": [
        {
          "internalType": "address",
          "name": "_battlefieldAddress",
          "type": "address"
        }
      ],
      "name": "setBattlefieldContract",
      "outputs": [],
      "stateMutability": "nonpayable",
      "type": "function"
    },
    {
      "inputs": [
        {
          "internalType": "uint256",
          "name": "newGasBack",
          "type": "uint256"
        }
      ],
      "name": "setGasBack",
      "outputs": [],
      "stateMutability": "nonpayable",
      "type": "function"
    },
    {
      "inputs": [
        {
          "internalType": "uint256",
          "name": "newCost",
          "type": "uint256"
        }
      ],
      "name": "setMintCost",
      "outputs": [],
      "stateMutability": "nonpayable",
      "type": "function"
    },
    {
      "inputs": [
        {
          "internalType": "string",
          "name": "newuri",
          "type": "string"
        }
      ],
      "name": "setURI",
      "outputs": [],
      "stateMutability": "nonpayable",
      "type": "function"
    },
    {
      "inputs": [
        {
          "internalType": "bytes4",
          "name": "interfaceId",
          "type": "bytes4"
        }
      ],
      "name": "supportsInterface",
      "outputs": [
        {
          "internalType": "bool",
          "name": "",
          "type": "bool"
        }
      ],
      "stateMutability": "view",
      "type": "function"
    },
    {
      "inputs": [
        {
          "internalType": "uint256",
          "name": "id",
          "type": "uint256"
        }
      ],
      "name": "totalSupplyOf",
      "outputs": [
        {
          "internalType": "uint256",
          "name": "",
          "type": "uint256"
        }
      ],
      "stateMutability": "view",
      "type": "function"
    },
    {
      "inputs": [
        {
          "internalType": "address",
          "name": "newOwner",
          "type": "address"
        }
      ],
      "name": "transferOwnership",
      "outputs": [],
      "stateMutability": "nonpayable",
      "type": "function"
    },
    {
      "inputs": [
        {
          "internalType": "uint256",
          "name": "",
          "type": "uint256"
        }
      ],
      "name": "uri",
      "outputs": [
        {
          "internalType": "string",
          "name": "",
          "type": "string"
        }
      ],
      "stateMutability": "view",
      "type": "function"
    },
    {
      "stateMutability": "payable",
      "type": "receive"
    }
  ],
  "bytecode": "0x6080604052678ac7230489e80000600455662386f26fc100006005553480156200002857600080fd5b50604051806020016040528060008152506200004a816200007160201b60201c565b506200006b6200005f6200008d60201b60201c565b6200009560201b60201c565b62000270565b8060029080519060200190620000899291906200015b565b5050565b600033905090565b6000600360009054906101000a900473ffffffffffffffffffffffffffffffffffffffff16905081600360006101000a81548173ffffffffffffffffffffffffffffffffffffffff021916908373ffffffffffffffffffffffffffffffffffffffff1602179055508173ffffffffffffffffffffffffffffffffffffffff168173ffffffffffffffffffffffffffffffffffffffff167f8be0079c531659141344cd1fd0a4f28419497f9722a3daafe3b4186f6b6457e060405160405180910390a35050565b82805462000169906200023a565b90600052602060002090601f0160209004810192826200018d5760008555620001d9565b82601f10620001a857805160ff1916838001178555620001d9565b82800160010185558215620001d9579182015b82811115620001d8578251825591602001919060010190620001bb565b5b509050620001e89190620001ec565b5090565b5b8082111562000207576000816000905550600101620001ed565b5090565b7f4e487b7100000000000000000000000000000000000000000000000000000000600052602260045260246000fd5b600060028204905060018216806200025357607f821691505b602082108114156200026a57620002696200020b565b5b50919050565b613fae80620002806000396000f3fe60806040526004361061012d5760003560e01c80635b0754ed116100ab5780638da5cb5b1161006f5780638da5cb5b1461049b578063a22cb465146104c6578063e985e9c5146104ef578063f242432a1461052c578063f2fde38b14610555578063f5298aca1461057e576101e8565b80635b0754ed146103cc5780636b20c454146103f5578063715018a61461041e57806375b0d9cd146104355780638545f4ea14610472576101e8565b8063156e29f6116100f2578063156e29f6146102f85780632eb2c2d61461031457806338ab4c921461033d5780634a46b811146103665780634e1273f41461038f576101e8565b8062fdd58e146101ed57806301ffc9a71461022a57806302fe5305146102675780630e89341c1461029057806313c738f0146102cd576101e8565b366101e857600061013c6105a7565b73ffffffffffffffffffffffffffffffffffffffff163460405161015f906125cb565b60006040518083038185875af1925050503d806000811461019c576040519150601f19603f3d011682016040523d82523d6000602084013e6101a1565b606091505b50509050806101e5576040517f08c379a00000000000000000000000000000000000000000000000000000000081526004016101dc90612663565b60405180910390fd5b50005b600080fd5b3480156101f957600080fd5b50610214600480360381019061020f919061272b565b6105d1565b604051610221919061277a565b60405180910390f35b34801561023657600080fd5b50610251600480360381019061024c91906127ed565b61069a565b60405161025e9190612835565b60405180910390f35b34801561027357600080fd5b5061028e60048036038101906102899190612996565b61077c565b005b34801561029c57600080fd5b506102b760048036038101906102b291906129df565b610790565b6040516102c49190612a83565b60405180910390f35b3480156102d957600080fd5b506102e2610824565b6040516102ef919061277a565b60405180910390f35b610312600480360381019061030d9190612aa5565b61082e565b005b34801561032057600080fd5b5061033b60048036038101906103369190612c61565b610a4f565b005b34801561034957600080fd5b50610364600480360381019061035f9190612d30565b610af0565b005b34801561037257600080fd5b5061038d60048036038101906103889190612aa5565b610b3c565b005b34801561039b57600080fd5b506103b660048036038101906103b19190612e20565b610c16565b6040516103c39190612f56565b60405180910390f35b3480156103d857600080fd5b506103f360048036038101906103ee91906129df565b610d2f565b005b34801561040157600080fd5b5061041c60048036038101906104179190612f78565b610d41565b005b34801561042a57600080fd5b50610433610dde565b005b34801561044157600080fd5b5061045c600480360381019061045791906129df565b610df2565b604051610469919061277a565b60405180910390f35b34801561047e57600080fd5b50610499600480360381019061049491906129df565b610e0f565b005b3480156104a757600080fd5b506104b06105a7565b6040516104bd9190613012565b60405180910390f35b3480156104d257600080fd5b506104ed60048036038101906104e89190613059565b610e21565b005b3480156104fb57600080fd5b5061051660048036038101906105119190613099565b610e37565b6040516105239190612835565b60405180910390f35b34801561053857600080fd5b50610553600480360381019061054e91906130d9565b610ecb565b005b34801561056157600080fd5b5061057c60048036038101906105779190612d30565b610f6c565b005b34801561058a57600080fd5b506105a560048036038101906105a09190612aa5565b610ff0565b005b6000600360009054906101000a900473ffffffffffffffffffffffffffffffffffffffff16905090565b60008073ffffffffffffffffffffffffffffffffffffffff168373ffffffffffffffffffffffffffffffffffffffff161415610642576040517f08c379a0000000000000000000000000000000000000000000000000000000008152600401610639906131e2565b60405180910390fd5b60008083815260200190815260200160002060008473ffffffffffffffffffffffffffffffffffffffff1673ffffffffffffffffffffffffffffffffffffffff16815260200190815260200160002054905092915050565b60007fd9b67a26000000000000000000000000000000000000000000000000000000007bffffffffffffffffffffffffffffffffffffffffffffffffffffffff1916827bffffffffffffffffffffffffffffffffffffffffffffffffffffffff1916148061076557507f0e89341c000000000000000000000000000000000000000000000000000000007bffffffffffffffffffffffffffffffffffffffffffffffffffffffff1916827bffffffffffffffffffffffffffffffffffffffffffffffffffffffff1916145b806107755750610774826110ba565b5b9050919050565b610784611124565b61078d816111a2565b50565b60606002805461079f90613231565b80601f01602080910402602001604051908101604052809291908181526020018280546107cb90613231565b80156108185780601f106107ed57610100808354040283529160200191610818565b820191906000526020600020905b8154815290600101906020018083116107fb57829003601f168201915b50505050509050919050565b6000600454905090565b6004543414610872576040517f08c379a0000000000000000000000000000000000000000000000000000000008152600401610869906132d5565b60405180910390fd5b60006005546004546108849190613324565b90506000600660009054906101000a900473ffffffffffffffffffffffffffffffffffffffff1673ffffffffffffffffffffffffffffffffffffffff16826040516108ce906125cb565b60006040518083038185875af1925050503d806000811461090b576040519150601f19603f3d011682016040523d82523d6000602084013e610910565b606091505b5050905080610954576040517f08c379a000000000000000000000000000000000000000000000000000000000815260040161094b90612663565b60405180910390fd5b60008573ffffffffffffffffffffffffffffffffffffffff1660055460405161097c906125cb565b60006040518083038185875af1925050503d80600081146109b9576040519150601f19603f3d011682016040523d82523d6000602084013e6109be565b606091505b5050905080610a02576040517f08c379a00000000000000000000000000000000000000000000000000000000081526004016109f9906133a4565b60405180910390fd5b610a1d868686604051806020016040528060008152506111bc565b83600760008781526020019081526020016000206000828254610a4091906133c4565b92505081905550505050505050565b610a5761136d565b73ffffffffffffffffffffffffffffffffffffffff168573ffffffffffffffffffffffffffffffffffffffff161480610a9d5750610a9c85610a9761136d565b610e37565b5b610adc576040517f08c379a0000000000000000000000000000000000000000000000000000000008152600401610ad39061348c565b60405180910390fd5b610ae98585858585611375565b5050505050565b610af8611124565b80600660006101000a81548173ffffffffffffffffffffffffffffffffffffffff021916908373ffffffffffffffffffffffffffffffffffffffff16021790555050565b600660009054906101000a900473ffffffffffffffffffffffffffffffffffffffff1673ffffffffffffffffffffffffffffffffffffffff163373ffffffffffffffffffffffffffffffffffffffff1614610bcc576040517f08c379a0000000000000000000000000000000000000000000000000000000008152600401610bc39061351e565b60405180910390fd5b610be7838383604051806020016040528060008152506111bc565b80600760008481526020019081526020016000206000828254610c0a91906133c4565b92505081905550505050565b60608151835114610c5c576040517f08c379a0000000000000000000000000000000000000000000000000000000008152600401610c53906135b0565b60405180910390fd5b6000835167ffffffffffffffff811115610c7957610c7861286b565b5b604051908082528060200260200182016040528015610ca75781602001602082028036833780820191505090505b50905060005b8451811015610d2457610cf4858281518110610ccc57610ccb6135d0565b5b6020026020010151858381518110610ce757610ce66135d0565b5b60200260200101516105d1565b828281518110610d0757610d066135d0565b5b60200260200101818152505080610d1d906135ff565b9050610cad565b508091505092915050565b610d37611124565b8060058190555050565b610d4961136d565b73ffffffffffffffffffffffffffffffffffffffff168373ffffffffffffffffffffffffffffffffffffffff161480610d8f5750610d8e83610d8961136d565b610e37565b5b610dce576040517f08c379a0000000000000000000000000000000000000000000000000000000008152600401610dc59061348c565b60405180910390fd5b610dd9838383611697565b505050565b610de6611124565b610df06000611966565b565b600060076000838152602001908152602001600020549050919050565b610e17611124565b8060048190555050565b610e33610e2c61136d565b8383611a2c565b5050565b6000600160008473ffffffffffffffffffffffffffffffffffffffff1673ffffffffffffffffffffffffffffffffffffffff16815260200190815260200160002060008373ffffffffffffffffffffffffffffffffffffffff1673ffffffffffffffffffffffffffffffffffffffff16815260200190815260200160002060009054906101000a900460ff16905092915050565b610ed361136d565b73ffffffffffffffffffffffffffffffffffffffff168573ffffffffffffffffffffffffffffffffffffffff161480610f195750610f1885610f1361136d565b610e37565b5b610f58576040517f08c379a0000000000000000000000000000000000000000000000000000000008152600401610f4f9061348c565b60405180910390fd5b610f658585858585611b99565b5050505050565b610f74611124565b600073ffffffffffffffffffffffffffffffffffffffff168173ffffffffffffffffffffffffffffffffffffffff161415610fe4576040517f08c379a0000000000000000000000000000000000000000000000000000000008152600401610fdb906136ba565b60405180910390fd5b610fed81611966565b50565b600660009054906101000a900473ffffffffffffffffffffffffffffffffffffffff1673ffffffffffffffffffffffffffffffffffffffff163373ffffffffffffffffffffffffffffffffffffffff1614611080576040517f08c379a00000000000000000000000000000000000000000000000000000000081526004016110779061374c565b60405180910390fd5b61108b838383611e35565b806007600084815260200190815260200160002060008282546110ae9190613324565b92505081905550505050565b60007f01ffc9a7000000000000000000000000000000000000000000000000000000007bffffffffffffffffffffffffffffffffffffffffffffffffffffffff1916827bffffffffffffffffffffffffffffffffffffffffffffffffffffffff1916149050919050565b61112c61136d565b73ffffffffffffffffffffffffffffffffffffffff1661114a6105a7565b73ffffffffffffffffffffffffffffffffffffffff16146111a0576040517f08c379a0000000000000000000000000000000000000000000000000000000008152600401611197906137b8565b60405180910390fd5b565b80600290805190602001906111b89291906124f7565b5050565b600073ffffffffffffffffffffffffffffffffffffffff168473ffffffffffffffffffffffffffffffffffffffff16141561122c576040517f08c379a00000000000000000000000000000000000000000000000000000000081526004016112239061384a565b60405180910390fd5b600061123661136d565b905060006112438561207c565b905060006112508561207c565b9050611261836000898585896120f6565b8460008088815260200190815260200160002060008973ffffffffffffffffffffffffffffffffffffffff1673ffffffffffffffffffffffffffffffffffffffff16815260200190815260200160002060008282546112c091906133c4565b925050819055508673ffffffffffffffffffffffffffffffffffffffff16600073ffffffffffffffffffffffffffffffffffffffff168473ffffffffffffffffffffffffffffffffffffffff167fc3d58168c5ae7397731d063d5bbf3d657854427343f4c083240f7aacaa2d0f62898960405161133e92919061386a565b60405180910390a4611355836000898585896120fe565b61136483600089898989612106565b50505050505050565b600033905090565b81518351146113b9576040517f08c379a00000000000000000000000000000000000000000000000000000000081526004016113b090613905565b60405180910390fd5b600073ffffffffffffffffffffffffffffffffffffffff168473ffffffffffffffffffffffffffffffffffffffff161415611429576040517f08c379a000000000000000000000000000000000000000000000000000000000815260040161142090613997565b60405180910390fd5b600061143361136d565b90506114438187878787876120f6565b60005b84518110156115f4576000858281518110611464576114636135d0565b5b602002602001015190506000858381518110611483576114826135d0565b5b60200260200101519050600080600084815260200190815260200160002060008b73ffffffffffffffffffffffffffffffffffffffff1673ffffffffffffffffffffffffffffffffffffffff16815260200190815260200160002054905081811015611524576040517f08c379a000000000000000000000000000000000000000000000000000000000815260040161151b90613a29565b60405180910390fd5b81810360008085815260200190815260200160002060008c73ffffffffffffffffffffffffffffffffffffffff1673ffffffffffffffffffffffffffffffffffffffff168152602001908152602001600020819055508160008085815260200190815260200160002060008b73ffffffffffffffffffffffffffffffffffffffff1673ffffffffffffffffffffffffffffffffffffffff16815260200190815260200160002060008282546115d991906133c4565b92505081905550505050806115ed906135ff565b9050611446565b508473ffffffffffffffffffffffffffffffffffffffff168673ffffffffffffffffffffffffffffffffffffffff168273ffffffffffffffffffffffffffffffffffffffff167f4a39dc06d4c0dbc64b70af90fd698a233a518aa5d07e595d983b8c0526c8f7fb878760405161166b929190613a49565b60405180910390a46116818187878787876120fe565b61168f8187878787876122ed565b505050505050565b600073ffffffffffffffffffffffffffffffffffffffff168373ffffffffffffffffffffffffffffffffffffffff161415611707576040517f08c379a00000000000000000000000000000000000000000000000000000000081526004016116fe90613af2565b60405180910390fd5b805182511461174b576040517f08c379a000000000000000000000000000000000000000000000000000000000815260040161174290613905565b60405180910390fd5b600061175561136d565b9050611775818560008686604051806020016040528060008152506120f6565b60005b83518110156118c2576000848281518110611796576117956135d0565b5b6020026020010151905060008483815181106117b5576117b46135d0565b5b60200260200101519050600080600084815260200190815260200160002060008973ffffffffffffffffffffffffffffffffffffffff1673ffffffffffffffffffffffffffffffffffffffff16815260200190815260200160002054905081811015611856576040517f08c379a000000000000000000000000000000000000000000000000000000000815260040161184d90613b84565b60405180910390fd5b81810360008085815260200190815260200160002060008a73ffffffffffffffffffffffffffffffffffffffff1673ffffffffffffffffffffffffffffffffffffffff1681526020019081526020016000208190555050505080806118ba906135ff565b915050611778565b50600073ffffffffffffffffffffffffffffffffffffffff168473ffffffffffffffffffffffffffffffffffffffff168273ffffffffffffffffffffffffffffffffffffffff167f4a39dc06d4c0dbc64b70af90fd698a233a518aa5d07e595d983b8c0526c8f7fb868660405161193a929190613a49565b60405180910390a4611960818560008686604051806020016040528060008152506120fe565b50505050565b6000600360009054906101000a900473ffffffffffffffffffffffffffffffffffffffff16905081600360006101000a81548173ffffffffffffffffffffffffffffffffffffffff021916908373ffffffffffffffffffffffffffffffffffffffff1602179055508173ffffffffffffffffffffffffffffffffffffffff168173ffffffffffffffffffffffffffffffffffffffff167f8be0079c531659141344cd1fd0a4f28419497f9722a3daafe3b4186f6b6457e060405160405180910390a35050565b8173ffffffffffffffffffffffffffffffffffffffff168373ffffffffffffffffffffffffffffffffffffffff161415611a9b576040517f08c379a0000000000000000000000000000000000000000000000000000000008152600401611a9290613c16565b60405180910390fd5b80600160008573ffffffffffffffffffffffffffffffffffffffff1673ffffffffffffffffffffffffffffffffffffffff16815260200190815260200160002060008473ffffffffffffffffffffffffffffffffffffffff1673ffffffffffffffffffffffffffffffffffffffff16815260200190815260200160002060006101000a81548160ff0219169083151502179055508173ffffffffffffffffffffffffffffffffffffffff168373ffffffffffffffffffffffffffffffffffffffff167f17307eab39ab6107e8899845ad3d59bd9653f200f220920489ca2b5937696c3183604051611b8c9190612835565b60405180910390a3505050565b600073ffffffffffffffffffffffffffffffffffffffff168473ffffffffffffffffffffffffffffffffffffffff161415611c09576040517f08c379a0000000000000000000000000000000000000000000000000000000008152600401611c0090613997565b60405180910390fd5b6000611c1361136d565b90506000611c208561207c565b90506000611c2d8561207c565b9050611c3d8389898585896120f6565b600080600088815260200190815260200160002060008a73ffffffffffffffffffffffffffffffffffffffff1673ffffffffffffffffffffffffffffffffffffffff16815260200190815260200160002054905085811015611cd4576040517f08c379a0000000000000000000000000000000000000000000000000000000008152600401611ccb90613a29565b60405180910390fd5b85810360008089815260200190815260200160002060008b73ffffffffffffffffffffffffffffffffffffffff1673ffffffffffffffffffffffffffffffffffffffff168152602001908152602001600020819055508560008089815260200190815260200160002060008a73ffffffffffffffffffffffffffffffffffffffff1673ffffffffffffffffffffffffffffffffffffffff1681526020019081526020016000206000828254611d8991906133c4565b925050819055508773ffffffffffffffffffffffffffffffffffffffff168973ffffffffffffffffffffffffffffffffffffffff168573ffffffffffffffffffffffffffffffffffffffff167fc3d58168c5ae7397731d063d5bbf3d657854427343f4c083240f7aacaa2d0f628a8a604051611e0692919061386a565b60405180910390a4611e1c848a8a86868a6120fe565b611e2a848a8a8a8a8a612106565b505050505050505050565b600073ffffffffffffffffffffffffffffffffffffffff168373ffffffffffffffffffffffffffffffffffffffff161415611ea5576040517f08c379a0000000000000000000000000000000000000000000000000000000008152600401611e9c90613af2565b60405180910390fd5b6000611eaf61136d565b90506000611ebc8461207c565b90506000611ec98461207c565b9050611ee9838760008585604051806020016040528060008152506120f6565b600080600087815260200190815260200160002060008873ffffffffffffffffffffffffffffffffffffffff1673ffffffffffffffffffffffffffffffffffffffff16815260200190815260200160002054905084811015611f80576040517f08c379a0000000000000000000000000000000000000000000000000000000008152600401611f7790613b84565b60405180910390fd5b84810360008088815260200190815260200160002060008973ffffffffffffffffffffffffffffffffffffffff1673ffffffffffffffffffffffffffffffffffffffff16815260200190815260200160002081905550600073ffffffffffffffffffffffffffffffffffffffff168773ffffffffffffffffffffffffffffffffffffffff168573ffffffffffffffffffffffffffffffffffffffff167fc3d58168c5ae7397731d063d5bbf3d657854427343f4c083240f7aacaa2d0f62898960405161204d92919061386a565b60405180910390a4612073848860008686604051806020016040528060008152506120fe565b50505050505050565b60606000600167ffffffffffffffff81111561209b5761209a61286b565b5b6040519080825280602002602001820160405280156120c95781602001602082028036833780820191505090505b50905082816000815181106120e1576120e06135d0565b5b60200260200101818152505080915050919050565b505050505050565b505050505050565b6121258473ffffffffffffffffffffffffffffffffffffffff166124d4565b156122e5578373ffffffffffffffffffffffffffffffffffffffff1663f23a6e6187878686866040518663ffffffff1660e01b815260040161216b959493929190613c8b565b602060405180830381600087803b15801561218557600080fd5b505af19250505080156121b657506040513d601f19601f820116820180604052508101906121b39190613cfa565b60015b61225c576121c2613d34565b806308c379a0141561221f57506121d7613d56565b806121e25750612221565b806040517f08c379a00000000000000000000000000000000000000000000000000000000081526004016122169190612a83565b60405180910390fd5b505b6040517f08c379a000000000000000000000000000000000000000000000000000000000815260040161225390613e5e565b60405180910390fd5b63f23a6e6160e01b7bffffffffffffffffffffffffffffffffffffffffffffffffffffffff1916817bffffffffffffffffffffffffffffffffffffffffffffffffffffffff1916146122e3576040517f08c379a00000000000000000000000000000000000000000000000000000000081526004016122da90613ef0565b60405180910390fd5b505b505050505050565b61230c8473ffffffffffffffffffffffffffffffffffffffff166124d4565b156124cc578373ffffffffffffffffffffffffffffffffffffffff1663bc197c8187878686866040518663ffffffff1660e01b8152600401612352959493929190613f10565b602060405180830381600087803b15801561236c57600080fd5b505af192505050801561239d57506040513d601f19601f8201168201806040525081019061239a9190613cfa565b60015b612443576123a9613d34565b806308c379a0141561240657506123be613d56565b806123c95750612408565b806040517f08c379a00000000000000000000000000000000000000000000000000000000081526004016123fd9190612a83565b60405180910390fd5b505b6040517f08c379a000000000000000000000000000000000000000000000000000000000815260040161243a90613e5e565b60405180910390fd5b63bc197c8160e01b7bffffffffffffffffffffffffffffffffffffffffffffffffffffffff1916817bffffffffffffffffffffffffffffffffffffffffffffffffffffffff1916146124ca576040517f08c379a00000000000000000000000000000000000000000000000000000000081526004016124c190613ef0565b60405180910390fd5b505b505050505050565b6000808273ffffffffffffffffffffffffffffffffffffffff163b119050919050565b82805461250390613231565b90600052602060002090601f016020900481019282612525576000855561256c565b82601f1061253e57805160ff191683800117855561256c565b8280016001018555821561256c579182015b8281111561256b578251825591602001919060010190612550565b5b509050612579919061257d565b5090565b5b8082111561259657600081600090555060010161257e565b5090565b600081905092915050565b50565b60006125b560008361259a565b91506125c0826125a5565b600082019050919050565b60006125d6826125a8565b9150819050919050565b600082825260208201905092915050565b7f45717569706d656e743a204661696c656420746f2070617373206f6e2076616c60008201527f7565000000000000000000000000000000000000000000000000000000000000602082015250565b600061264d6022836125e0565b9150612658826125f1565b604082019050919050565b6000602082019050818103600083015261267c81612640565b9050919050565b6000604051905090565b600080fd5b600080fd5b600073ffffffffffffffffffffffffffffffffffffffff82169050919050565b60006126c282612697565b9050919050565b6126d2816126b7565b81146126dd57600080fd5b50565b6000813590506126ef816126c9565b92915050565b6000819050919050565b612708816126f5565b811461271357600080fd5b50565b600081359050612725816126ff565b92915050565b600080604083850312156127425761274161268d565b5b6000612750858286016126e0565b925050602061276185828601612716565b9150509250929050565b612774816126f5565b82525050565b600060208201905061278f600083018461276b565b92915050565b60007fffffffff0000000000000000000000000000000000000000000000000000000082169050919050565b6127ca81612795565b81146127d557600080fd5b50565b6000813590506127e7816127c1565b92915050565b6000602082840312156128035761280261268d565b5b6000612811848285016127d8565b91505092915050565b60008115159050919050565b61282f8161281a565b82525050565b600060208201905061284a6000830184612826565b92915050565b600080fd5b600080fd5b6000601f19601f8301169050919050565b7f4e487b7100000000000000000000000000000000000000000000000000000000600052604160045260246000fd5b6128a38261285a565b810181811067ffffffffffffffff821117156128c2576128c161286b565b5b80604052505050565b60006128d5612683565b90506128e1828261289a565b919050565b600067ffffffffffffffff8211156129015761290061286b565b5b61290a8261285a565b9050602081019050919050565b82818337600083830152505050565b6000612939612934846128e6565b6128cb565b90508281526020810184848401111561295557612954612855565b5b612960848285612917565b509392505050565b600082601f83011261297d5761297c612850565b5b813561298d848260208601612926565b91505092915050565b6000602082840312156129ac576129ab61268d565b5b600082013567ffffffffffffffff8111156129ca576129c9612692565b5b6129d684828501612968565b91505092915050565b6000602082840312156129f5576129f461268d565b5b6000612a0384828501612716565b91505092915050565b600081519050919050565b60005b83811015612a35578082015181840152602081019050612a1a565b83811115612a44576000848401525b50505050565b6000612a5582612a0c565b612a5f81856125e0565b9350612a6f818560208601612a17565b612a788161285a565b840191505092915050565b60006020820190508181036000830152612a9d8184612a4a565b905092915050565b600080600060608486031215612abe57612abd61268d565b5b6000612acc868287016126e0565b9350506020612add86828701612716565b9250506040612aee86828701612716565b9150509250925092565b600067ffffffffffffffff821115612b1357612b1261286b565b5b602082029050602081019050919050565b600080fd5b6000612b3c612b3784612af8565b6128cb565b90508083825260208201905060208402830185811115612b5f57612b5e612b24565b5b835b81811015612b885780612b748882612716565b845260208401935050602081019050612b61565b5050509392505050565b600082601f830112612ba757612ba6612850565b5b8135612bb7848260208601612b29565b91505092915050565b600067ffffffffffffffff821115612bdb57612bda61286b565b5b612be48261285a565b9050602081019050919050565b6000612c04612bff84612bc0565b6128cb565b905082815260208101848484011115612c2057612c1f612855565b5b612c2b848285612917565b509392505050565b600082601f830112612c4857612c47612850565b5b8135612c58848260208601612bf1565b91505092915050565b600080600080600060a08688031215612c7d57612c7c61268d565b5b6000612c8b888289016126e0565b9550506020612c9c888289016126e0565b945050604086013567ffffffffffffffff811115612cbd57612cbc612692565b5b612cc988828901612b92565b935050606086013567ffffffffffffffff811115612cea57612ce9612692565b5b612cf688828901612b92565b925050608086013567ffffffffffffffff811115612d1757612d16612692565b5b612d2388828901612c33565b9150509295509295909350565b600060208284031215612d4657612d4561268d565b5b6000612d54848285016126e0565b91505092915050565b600067ffffffffffffffff821115612d7857612d7761286b565b5b602082029050602081019050919050565b6000612d9c612d9784612d5d565b6128cb565b90508083825260208201905060208402830185811115612dbf57612dbe612b24565b5b835b81811015612de85780612dd488826126e0565b845260208401935050602081019050612dc1565b5050509392505050565b600082601f830112612e0757612e06612850565b5b8135612e17848260208601612d89565b91505092915050565b60008060408385031215612e3757612e3661268d565b5b600083013567ffffffffffffffff811115612e5557612e54612692565b5b612e6185828601612df2565b925050602083013567ffffffffffffffff811115612e8257612e81612692565b5b612e8e85828601612b92565b9150509250929050565b600081519050919050565b600082825260208201905092915050565b6000819050602082019050919050565b612ecd816126f5565b82525050565b6000612edf8383612ec4565b60208301905092915050565b6000602082019050919050565b6000612f0382612e98565b612f0d8185612ea3565b9350612f1883612eb4565b8060005b83811015612f49578151612f308882612ed3565b9750612f3b83612eeb565b925050600181019050612f1c565b5085935050505092915050565b60006020820190508181036000830152612f708184612ef8565b905092915050565b600080600060608486031215612f9157612f9061268d565b5b6000612f9f868287016126e0565b935050602084013567ffffffffffffffff811115612fc057612fbf612692565b5b612fcc86828701612b92565b925050604084013567ffffffffffffffff811115612fed57612fec612692565b5b612ff986828701612b92565b9150509250925092565b61300c816126b7565b82525050565b60006020820190506130276000830184613003565b92915050565b6130368161281a565b811461304157600080fd5b50565b6000813590506130538161302d565b92915050565b600080604083850312156130705761306f61268d565b5b600061307e858286016126e0565b925050602061308f85828601613044565b9150509250929050565b600080604083850312156130b0576130af61268d565b5b60006130be858286016126e0565b92505060206130cf858286016126e0565b9150509250929050565b600080600080600060a086880312156130f5576130f461268d565b5b6000613103888289016126e0565b9550506020613114888289016126e0565b945050604061312588828901612716565b935050606061313688828901612716565b925050608086013567ffffffffffffffff81111561315757613156612692565b5b61316388828901612c33565b9150509295509295909350565b7f455243313135353a2061646472657373207a65726f206973206e6f742061207660008201527f616c6964206f776e657200000000000000000000000000000000000000000000602082015250565b60006131cc602a836125e0565b91506131d782613170565b604082019050919050565b600060208201905081810360008301526131fb816131bf565b9050919050565b7f4e487b7100000000000000000000000000000000000000000000000000000000600052602260045260246000fd5b6000600282049050600182168061324957607f821691505b6020821081141561325d5761325c613202565b5b50919050565b7f45717569706d656e743a2076616c7565206d757374206265206d696e7420636f60008201527f7374000000000000000000000000000000000000000000000000000000000000602082015250565b60006132bf6022836125e0565b91506132ca82613263565b604082019050919050565b600060208201905081810360008301526132ee816132b2565b9050919050565b7f4e487b7100000000000000000000000000000000000000000000000000000000600052601160045260246000fd5b600061332f826126f5565b915061333a836126f5565b92508282101561334d5761334c6132f5565b5b828203905092915050565b7f45717569706d656e743a204661696c656420746f207265696d62757273650000600082015250565b600061338e601e836125e0565b915061339982613358565b602082019050919050565b600060208201905081810360008301526133bd81613381565b9050919050565b60006133cf826126f5565b91506133da836126f5565b9250827fffffffffffffffffffffffffffffffffffffffffffffffffffffffffffffffff0382111561340f5761340e6132f5565b5b828201905092915050565b7f455243313135353a2063616c6c6572206973206e6f7420746f6b656e206f776e60008201527f6572206f7220617070726f766564000000000000000000000000000000000000602082015250565b6000613476602e836125e0565b91506134818261341a565b604082019050919050565b600060208201905081810360008301526134a581613469565b9050919050565b7f45717569706d656e743a204f6e6c7920426174746c656669656c6420636f6e7460008201527f726163742063616e207265776172640000000000000000000000000000000000602082015250565b6000613508602f836125e0565b9150613513826134ac565b604082019050919050565b60006020820190508181036000830152613537816134fb565b9050919050565b7f455243313135353a206163636f756e747320616e6420696473206c656e67746860008201527f206d69736d617463680000000000000000000000000000000000000000000000602082015250565b600061359a6029836125e0565b91506135a58261353e565b604082019050919050565b600060208201905081810360008301526135c98161358d565b9050919050565b7f4e487b7100000000000000000000000000000000000000000000000000000000600052603260045260246000fd5b600061360a826126f5565b91507fffffffffffffffffffffffffffffffffffffffffffffffffffffffffffffffff82141561363d5761363c6132f5565b5b600182019050919050565b7f4f776e61626c653a206e6577206f776e657220697320746865207a65726f206160008201527f6464726573730000000000000000000000000000000000000000000000000000602082015250565b60006136a46026836125e0565b91506136af82613648565b604082019050919050565b600060208201905081810360008301526136d381613697565b9050919050565b7f45717569706d656e743a204f6e6c7920426174746c656669656c6420636f6e7460008201527f726163742063616e206275726e00000000000000000000000000000000000000602082015250565b6000613736602d836125e0565b9150613741826136da565b604082019050919050565b6000602082019050818103600083015261376581613729565b9050919050565b7f4f776e61626c653a2063616c6c6572206973206e6f7420746865206f776e6572600082015250565b60006137a26020836125e0565b91506137ad8261376c565b602082019050919050565b600060208201905081810360008301526137d181613795565b9050919050565b7f455243313135353a206d696e7420746f20746865207a65726f2061646472657360008201527f7300000000000000000000000000000000000000000000000000000000000000602082015250565b60006138346021836125e0565b915061383f826137d8565b604082019050919050565b6000602082019050818103600083015261386381613827565b9050919050565b600060408201905061387f600083018561276b565b61388c602083018461276b565b9392505050565b7f455243313135353a2069647320616e6420616d6f756e7473206c656e6774682060008201527f6d69736d61746368000000000000000000000000000000000000000000000000602082015250565b60006138ef6028836125e0565b91506138fa82613893565b604082019050919050565b6000602082019050818103600083015261391e816138e2565b9050919050565b7f455243313135353a207472616e7366657220746f20746865207a65726f20616460008201527f6472657373000000000000000000000000000000000000000000000000000000602082015250565b60006139816025836125e0565b915061398c82613925565b604082019050919050565b600060208201905081810360008301526139b081613974565b9050919050565b7f455243313135353a20696e73756666696369656e742062616c616e636520666f60008201527f72207472616e7366657200000000000000000000000000000000000000000000602082015250565b6000613a13602a836125e0565b9150613a1e826139b7565b604082019050919050565b60006020820190508181036000830152613a4281613a06565b9050919050565b60006040820190508181036000830152613a638185612ef8565b90508181036020830152613a778184612ef8565b90509392505050565b7f455243313135353a206275726e2066726f6d20746865207a65726f206164647260008201527f6573730000000000000000000000000000000000000000000000000000000000602082015250565b6000613adc6023836125e0565b9150613ae782613a80565b604082019050919050565b60006020820190508181036000830152613b0b81613acf565b9050919050565b7f455243313135353a206275726e20616d6f756e7420657863656564732062616c60008201527f616e636500000000000000000000000000000000000000000000000000000000602082015250565b6000613b6e6024836125e0565b9150613b7982613b12565b604082019050919050565b60006020820190508181036000830152613b9d81613b61565b9050919050565b7f455243313135353a2073657474696e6720617070726f76616c2073746174757360008201527f20666f722073656c660000000000000000000000000000000000000000000000602082015250565b6000613c006029836125e0565b9150613c0b82613ba4565b604082019050919050565b60006020820190508181036000830152613c2f81613bf3565b9050919050565b600081519050919050565b600082825260208201905092915050565b6000613c5d82613c36565b613c678185613c41565b9350613c77818560208601612a17565b613c808161285a565b840191505092915050565b600060a082019050613ca06000830188613003565b613cad6020830187613003565b613cba604083018661276b565b613cc7606083018561276b565b8181036080830152613cd98184613c52565b90509695505050505050565b600081519050613cf4816127c1565b92915050565b600060208284031215613d1057613d0f61268d565b5b6000613d1e84828501613ce5565b91505092915050565b60008160e01c9050919050565b600060033d1115613d535760046000803e613d50600051613d27565b90505b90565b600060443d1015613d6657613de9565b613d6e612683565b60043d036004823e80513d602482011167ffffffffffffffff82111715613d96575050613de9565b808201805167ffffffffffffffff811115613db45750505050613de9565b80602083010160043d038501811115613dd1575050505050613de9565b613de08260200185018661289a565b82955050505050505b90565b7f455243313135353a207472616e7366657220746f206e6f6e2d4552433131353560008201527f526563656976657220696d706c656d656e746572000000000000000000000000602082015250565b6000613e486034836125e0565b9150613e5382613dec565b604082019050919050565b60006020820190508181036000830152613e7781613e3b565b9050919050565b7f455243313135353a204552433131353552656365697665722072656a6563746560008201527f6420746f6b656e73000000000000000000000000000000000000000000000000602082015250565b6000613eda6028836125e0565b9150613ee582613e7e565b604082019050919050565b60006020820190508181036000830152613f0981613ecd565b9050919050565b600060a082019050613f256000830188613003565b613f326020830187613003565b8181036040830152613f448186612ef8565b90508181036060830152613f588185612ef8565b90508181036080830152613f6c8184613c52565b9050969550505050505056fea26469706673582212201df33bb2a4a83d084220c77551b02a34bcaaab235246eabcf91be67e91cee9b964736f6c63430008090033",
  "linkReferences": {},
  "deployedLinkReferences": {}
}